:100000000C942A000C9447000C9447000C94470071
:100010000C9447000C9447000C9447000C94470044
:100020000C9447000C9447000C9447000C94E20E8B
:100030000C9447000C9447000C9447000C94470024
:100040000C94B0070C9447000C9447000C944700A4
:100050000C94470011241FBECFE5D8E0DEBFCDBF12
:1000600011E0A8E6B1E001C01D92A437B107E1F7A5
:1000700011E0A0E6B0E0E0EEFFE102C005900D92D5
:10008000A836B107D9F70E94350F0C94EE0F0C94E7
:100090000000EF92FF920F931F937B018C0120E0F1
:1000A00030E040E05FE40E94C50388238CF0C80183
:1000B000B70120E030E040E05FE40E94C1010E940F
:1000C000F5039B01AC01205030404040504806C031
:1000D000C801B7010E94F5039B01AC01B901CA0137
:1000E0001F910F91FF90EF900895A0E0B0E0EBE733
:1000F000F0E00C94B70FDC012B01FA019C919230D7
:1001000008F439C1EB018881823008F433C194309E
:1001100069F4843009F02FC111969C91119789815F
:10012000981709F428C1A0E6B0E025C1843009F48D
:1001300021C18230A9F4923009F01DC19A01AD01AC
:1001400088E0EA010990AE01E90109929E0181501F
:10015000C1F7E201898111969C918923818308C1AD
:10016000923009F407C112962D903C901397EB0141
:100170008A819B811496AD90BD90CD90DC901797AD
:10018000EC80FD800E811F819101281B390BB90184
:1001900037FF04C066277727621B730B6032710537
:1001A0000CF061C0121613066CF537014801062EDB
:1001B00004C096948794779467940A94D2F721E0C8
:1001C00030E040E050E004C0220F331F441F551FB1
:1001D0006A95D2F721503040404050402E213F21B7
:1001E00040235123211531054105510521F021E01E
:1001F00030E040E050E079018A01E628F72808293C
:1002000019293CC0232BD1F1260E371E350146019A
:10021000062E04C096948794779467940A94D2F734
:1002200021E030E040E050E004C0220F331F441FC3
:10023000551F6A95D2F721503040404050402A2146
:100240003B214C215D21211531054105510521F04E
:1002500021E030E040E050E059016A01A628B728CB
:10026000C828D9280BC0821593052CF01C01AA249C
:10027000BB24650103C0EE24FF24870111969C91E5
:10028000D20111968C91981709F445C0992339F041
:10029000A80197012A193B094C095D0906C0A6016E
:1002A00095012E193F09400B510B57FD08C01182D3
:1002B0003382228224833583468357831DC081E0A5
:1002C00081833382228288279927DC01821B930B4A
:1002D000A40BB50B84839583A683B7830DC0220F2F
:1002E000331F441F551F24833583468357838281E0
:1002F000938101979383828324813581468157813D
:10030000DA01C9010197A109B1098F5F9F4FAF4F72
:10031000BF4328F30BC0918333822282EA0CFB1C7B
:100320000C1D1D1DE482F5820683178383E0808304
:10033000248135814681578157FF1AC0C901AA27F8
:1003400097FDA095BA2F81709070A070B0705695EF
:10035000479537952795822B932BA42BB52B848318
:100360009583A683B7838281938101969383828349
:10037000DF0101C0D201CD01CDB7DEB7E2E10C94BF
:10038000D30FA0E2B0E0E7ECF1E00C94C30F698377
:100390007A838B839C832D833E834F835887E9E048
:1003A000EE2EF12CEC0EFD1ECE010196B7010E943F
:1003B000E6058E010F5E1F4FCE010596B8010E9423
:1003C000E6058A8991E089278A8BC701B801AE01C9
:1003D000475E5F4F0E9475000E941105A096E6E0FF
:1003E0000C94DF0FA0E2B0E0E8EFF1E00C94C30F53
:1003F00069837A838B839C832D833E834F835887C5
:10040000F9E0EF2EF12CEC0EFD1ECE010196B701A6
:100410000E94E6058E010F5E1F4FCE010596B801C2
:100420000E94E605C701B801AE01475E5F4F0E941A
:1004300075000E941105A096E6E00C94DF0FA0E283
:10044000B0E0E5E2F2E00C94B70F69837A838B8326
:100450009C832D833E834F835887CE010196BE0136
:10046000675F7F4F0E94E605CE010596BE016F5E75
:100470007F4F0E94E6059985923088F08989823005
:10048000C8F0943019F4823051F404C0843029F457
:10049000923081F480E690E0C6C0923049F420E0CA
:1004A0009A858A89981321E02A87CE010996BBC0D4
:1004B000823049F420E09A858A89981321E02A8BBA
:1004C000CE014196B0C02D843E844F8458886D88FB
:1004D0007E888F88988CEE24FF248701AA24BB2471
:1004E000650140E050E060E070E0E0E0F0E0C10174
:1004F00081709070892BE9F0E60CF71C081D191D1E
:100500009A01AB012A0D3B1D4C1D5D1D80E090E062
:10051000A0E0B0E0E614F7040805190520F481E036
:1005200090E0A0E0B0E0BA01A901480F591F6A1F8E
:100530007B1FAA0CBB1CCC1CDD1C97FE08C081E0F5
:1005400090E0A0E0B0E0A82AB92ACA2ADB2A3196B6
:10055000E032F10549F0660C771C881C991C569412
:10056000479437942794C3CFFA85EA892B893C892D
:100570008B859C85280F391F2E5F3F4F17C0CA01FE
:1005800081709070892B61F016950795F794E79428
:1005900080E090E0A0E0B0E8E82AF92A0A2B1B2BC3
:1005A00076956795579547952F5F3F4F77FDE7CF36
:1005B0000CC0440F551F661F771F17FD4160EE0CDE
:1005C000FF1C001F111F21503040403090E05907A0
:1005D00090E0690790E4790760F32B8F3C8FDB0193
:1005E000CA018F779070A070B07080349105A1051A
:1005F000B10561F447FD0AC0E114F10401051105DC
:1006000029F0405C5F4F6F4F7F4F40781A8EFE1786
:1006100011F081E08A8F4D8F5E8F6F8F78A383E01A
:10062000898FCE0149960E941105A096E2E10C94B3
:10063000D30FA8E1B0E0EFE1F3E00C94BF0F6983C2
:100640007A838B839C832D833E834F835887B9E0C5
:10065000EB2EF12CEC0EFD1ECE010196B7010E948F
:10066000E6058E010F5E1F4FCE010596B8010E9470
:10067000E6052985223008F47EC03989323010F42D
:10068000B8017CC08A859A8989278A87243011F02D
:10069000223031F4231709F06EC060E670E06EC0BE
:1006A000343039F41D861E861F86188A1C861B86E8
:1006B00004C0323021F484E08987B7015FC02B8504
:1006C0003C858B899C89281B390B3C872B87ED84C3
:1006D000FE840F851889AD88BE88CF88D88CEA142F
:1006E000FB040C051D0540F4EE0CFF1C001F111F40
:1006F000215030403C872B8720E030E040E050E044
:1007000080E090E0A0E0B0E460E070E0EA14FB0478
:100710000C051D0540F0282B392B4A2B5B2BEA18C2
:10072000FB080C091D09B695A79597958795EE0CC2
:10073000FF1C001F111F6F5F7F4F6F31710531F775
:10074000DA01C9018F779070A070B0708034910584
:10075000A105B10561F427FD0AC0E114F10401050A
:10076000110529F0205C3F4F4F4F5F4F20782D87B8
:100770003E874F87588BBE01675F7F4FCB010E943A
:1007800011056896EAE00C94DB0FA8E1B0E0EBEC11
:10079000F3E00C94C30F69837A838B839C832D834E
:1007A0003E834F83588789E0E82EF12CEC0EFD1E26
:1007B000CE010196B7010E94E6058E010F5E1F4F24
:1007C000CE010596B8010E94E6058985823040F089
:1007D0008989823028F0C701B8010E945E0601C0F5
:1007E0008FEF6896E6E00C94DF0FACE0B0E0EBEF43
:1007F000F3E00C94C70F69837A838B839C83CE01CB
:100800000196BE016B5F7F4F0E94E6058D818230AD
:1008100061F1823050F1843021F48E81882351F1CE
:100820002EC02F81388537FD20C06E812F313105D4
:100830001CF06623F9F023C08EE190E0821B930B3D
:1008400029853A854B855C8504C056954795379533
:1008500027958A95D2F76623B1F05095409530954B
:1008600021953F4F4F4F5F4F0EC020E030E040E0FA
:1008700050E009C02FEF3FEF4FEF5FE704C020E0EB
:1008800030E040E050E8B901CA012C96E2E00C9457
:10089000E30FA8E0B0E0EFE4F4E00C94BF0F7B01BD
:1008A0008C01611571058105910519F482E0898338
:1008B00060C083E089838EE1C82ED12CDC82CB829C
:1008C000ED82FE820F831887C801B7010E94C2041F
:1008D000FC013197F7FF3BC0222733272E1B3F0B2C
:1008E00057016801022E04C0D694C794B794A79408
:1008F0000A94D2F740E050E060E070E081E090E0E0
:10090000A0E0B0E004C0880F991FAA1FBB1F2A9562
:10091000D2F70197A109B1098E219F21A023B1230C
:100920000097A105B10521F041E050E060E070E0E2
:100930004A295B296C297D294D835E836F837887E3
:100940008EE190E08E1B9F0B9C838B8312C03097AF
:1009500081F00E2E04C0EE0CFF1C001F111F0A9424
:10096000D2F7ED82FE820F831887CE1ADF0ADC826F
:10097000CB821A82CE0101960E9411052896EAE0E8
:100980000C94DB0FEF92FF920F931F937B018C016E
:1009900080E0E81680E0F80681E0080780E01807AC
:1009A00088F48FEFE816F1040105110531F028F005
:1009B00088E090E0A0E0B0E017C080E090E0A0E028
:1009C000B0E012C080E0E81680E0F80680E008079A
:1009D00081E0180728F088E190E0A0E0B0E004C0D2
:1009E00080E190E0A0E0B0E020E230E040E050E0C4
:1009F000281B390B4A0B5B0B04C016950795F7941F
:100A0000E7948A95D2F7F701E859FF4F8081281BB8
:100A1000310941095109C9011F910F91FF90EF90D0
:100A20000895DF92EF92FF920F931F93FC01E480F1
:100A3000F58006811781D1808081823048F480E082
:100A400090E0A0E1B0E0E82AF92A0A2B1B2BA5C010
:100A5000843009F49FC0823021F4EE24FF24870102
:100A600005C0E114F1040105110519F4E0E0F0E01E
:100A700096C0628173819FEF623879070CF05BC08A
:100A800022E83FEF261B370B2A3131052CF020E0FE
:100A900030E040E050E02AC0B801A701022E04C0B7
:100AA00076956795579547950A94D2F781E090E03F
:100AB000A0E0B0E004C0880F991FAA1FBB1F2A95B1
:100AC000D2F70197A109B1098E219F21A023B1235B
:100AD0000097A105B10521F081E090E0A0E0B0E031
:100AE0009A01AB01282B392B4A2B5B2BDA01C90168
:100AF0008F779070A070B07080349105A105B1051A
:100B000039F427FF09C0205C3F4F4F4F5F4F04C0AF
:100B1000215C3F4F4F4F5F4FE0E0F0E02030A0E01E
:100B20003A07A0E04A07A0E45A0710F0E1E0F0E03D
:100B300079018A0127C06038710564F5FB01E1582D
:100B4000FF4FD801C7018F779070A070B0708034CC
:100B50009105A105B10539F4E7FE0DC080E490E0F0
:100B6000A0E0B0E004C08FE390E0A0E0B0E0E80EC9
:100B7000F91E0A1F1B1F17FF05C016950795F7944E
:100B8000E794319687E016950795F794E7948A9550
:100B9000D1F705C0EE24FF248701EFEFF0E06E2FC0
:100BA000679566276795902F9F77D794DD24D79414
:100BB0008E2F8695492F462B582F5D29B701CA01E4
:100BC0001F910F91FF90EF90DF900895FC01DB01E2
:100BD000408151812281622F6F7770E0221F22278E
:100BE000221F9381892F880F822B282F30E0991F95
:100BF0009927991F11969C93119721153105A9F5F5
:100C0000411551056105710511F482E037C082E894
:100C10009FEF13969C938E9312979A01AB0167E016
:100C2000220F331F441F551F6A95D1F783E08C9321
:100C30000DC0220F331F441F551F12968D919C919A
:100C40001397019713969C938E931297203080E010
:100C5000380780E0480780E4580758F314962D932E
:100C60003D934D935C93179708952F3F310579F489
:100C7000411551056105710519F484E08C930895BF
:100C800064FF03C081E08C9312C01C9210C02F57E8
:100C9000304013963C932E93129783E08C9387E019
:100CA000440F551F661F771F8A95D1F770641496FD
:100CB0004D935D936D937C93179708951F93DC017B
:100CC000FB019C91923008F447C08081823008F487
:100CD00043C0943051F411961C91843099F5818170
:100CE000682F70E0611B71093FC0843021F09230A1
:100CF00031F48230B9F18181882389F12DC01196B8
:100D00001C9111978230F1F081811817D9F4129655
:100D10002D913C911397828193818217930794F0D0
:100D200028173907BCF014968D919D910D90BC91B8
:100D3000A02D2481358146815781281739074A071C
:100D40005B0718F4112341F00AC082179307A40728
:100D5000B50740F4112319F061E070E005C06FEFB2
:100D60007FEF02C060E070E0CB011F910895DF9338
:100D7000CF9300D00F92CDB7DEB789836A834B83C0
:100D80008981823018F08981833099F58A81883091
:100D900080F58B81823068F5A7E2B0E0E7E2F0E011
:100DA0008081382F3F718981882F90E000249695AB
:100DB00087950794969587950794982F802D282FCF
:100DC0008B81882F90E0880F991F82959295907F54
:100DD0009827807F9827822B832B8C93A6E2B0E004
:100DE000E6E2F0E08081982F987F8A818068892BE5
:100DF0008C930F900F900F90CF91DF910895DF9318
:100E0000CF93CDB7DEB7A6E2B0E0E6E2F0E08081B6
:100E100080688C93CF91DF910895DF93CF93CDB706
:100E2000DEB7A6E2B0E0E6E2F0E080818F778C9357
:100E3000CF91DF910895DF93CF93CDB7DEB7A6E2D0
:100E4000B0E0E6E2F0E0808188608C93CF91DF91A2
:100E50000895DF93CF93CDB7DEB7A6E2B0E0E6E228
:100E6000F0E08081877F8C93CF91DF910895DF93AD
:100E7000CF9300D0CDB7DEB79A83898389819A81D9
:100E800090936901809368010F900F90CF91DF914B
:100E90000895DF93CF930F92CDB7DEB78983898111
:100EA0000E9472070E9490070E94A207E5E2F0E00C
:100EB00080810F90CF91DF910895DF93CF930F92B0
:100EC000CDB7DEB7898389810E9472070E9490079F
:100ED0000E94A207E4E2F0E0808191810F90CF911F
:100EE000DF910895DF93CF930F92CDB7DEB789835B
:100EF0008981803288F4A7E2B0E0E7E2F0E0808107
:100F0000982F907E8981892B8C93A6E2B0E0E6E24F
:100F1000F0E0808180648C930F90CF91DF910895F1
:100F2000DF93CF93CDB7DEB7E6E2F0E08081829524
:100F30008F70882F90E0817090700097A9F3CF9107
:100F4000DF910895DF93CF93CDB7DEB7A6E2B0E08F
:100F5000E6E2F0E0808180618C93CF91DF9108958B
:100F60001F920F920FB60F9211242F933F934F931E
:100F70005F936F937F938F939F93AF93BF93EF9301
:100F8000FF93DF93CF93CDB7DEB780916801909147
:100F90006901009729F0E0916801F09169010995D4
:100FA000CF91DF91FF91EF91BF91AF919F918F9181
:100FB0007F916F915F914F913F912F910F900FBE55
:100FC0000F901F901895DF93CF9300D000D0CDB72E
:100FD000DEB789836A838981282F30E03C832B83A5
:100FE0008B819C818C309105B1F02B813C812D301F
:100FF000310534F48B819C8185309105D9F01EC078
:101000002B813C812132310559F08B819C818832C2
:10101000910559F013C0E9E3F0E08A8181830EC0A5
:10102000E6E3F0E08A81818309C0E3E3F0E08A81AE
:10103000818304C0E0E3F0E08A8181830F900F9008
:101040000F900F90CF91DF910895DF93CF9300D051
:1010500000D0CDB7DEB789836A838981282F30E03D
:101060003C832B838B819C818C309105B1F02B814B
:101070003C812D30310534F48B819C818530910584
:10108000D9F01EC02B813C812132310559F08B8172
:101090009C818832910559F013C0E9E3F0E08A8120
:1010A00082830EC0E6E3F0E08A81828309C0E3E335
:1010B000F0E08A81828304C0E0E3F0E08A818283E9
:1010C0000F900F900F900F90CF91DF910895DF93C5
:1010D000CF9300D000D0CDB7DEB78A8319828A8142
:1010E000282F30E03C832B838B819C818C309105B1
:1010F000B1F02B813C812D30310534F48B819C8102
:1011000085309105D9F01EC02B813C8121323105FB
:1011100059F08B819C818832910559F013C0E9E325
:10112000F0E0808189830EC0E6E3F0E0808189836E
:1011300009C0E3E3F0E08081898304C0E0E3F0E0EC
:101140008081898389810F900F900F900F90CF91AC
:10115000DF910895DF93CF93CDB7DEB729970FB610
:10116000F894DEBF0FBECDBF89836A834B838A812B
:10117000883008F0CCC18B818A3509F079C089812B
:10118000282F30E039872887888599858C3091050C
:10119000B9F0288539852D3031053CF4888599854D
:1011A0008530910509F44EC0B2C1288539852132B8
:1011B0003105E1F0888599858832910569F1A7C1EB
:1011C000A9E3B0E0E9E3F0E08181482F8A81282F8C
:1011D00030E081E090E0022E02C0880F991F0A944F
:1011E000E2F7842B11968C93119791C1A6E3B0E09E
:1011F000E6E3F0E08181482F8A81282F30E081E00A
:1012000090E0022E02C0880F991F0A94E2F7842B07
:1012100011968C9311977BC1A3E3B0E0E3E3F0E078
:101220008181482F8A81282F30E081E090E0022ED2
:1012300002C0880F991F0A94E2F7842B11968C93B1
:10124000119765C1A0E3B0E0E0E3F0E08181482FB1
:101250008A81282F30E081E090E0022E02C0880FC2
:10126000991F0A94E2F7842B11968C9311974FC122
:101270008B81843609F07EC08981282F30E03F833E
:101280002E838E819F818C30910509F445C02E817B
:101290003F812D3031053CF48E819F818530910551
:1012A00009F451C034C12E813F812132310531F022
:1012B0008E819F8188329105C1F029C1A6E3B0E0FB
:1012C000E6E3F0E08181482F8A81282F30E081E039
:1012D00090E0022E02C0880F991F0A94E2F78095D1
:1012E000842311968C93119712C1A3E3B0E0E3E33A
:1012F000F0E08181482F8A81282F30E081E090E062
:10130000022E02C0880F991F0A94E2F78095842369
:1013100011968C931197FBC0A9E3B0E0E9E3F0E0EC
:101320008181482F8A81282F30E081E090E0022ED1
:1013300002C0880F991F0A94E2F7809584231196C2
:101340008C931197E4C0A0E3B0E0E0E3F0E081818A
:10135000482F8A81282F30E081E090E0022E02C0E1
:10136000880F991F0A94E2F78095842311968C9335
:101370001197CDC08B81883C09F0C9C08981282F85
:1013800030E03D832C838C819D818C30910509F464
:101390006BC02C813D812D3031053CF48C819D81C9
:1013A0008530910509F48AC0B2C02C813D8121327B
:1013B000310531F08C819D818832910559F1A7C0AA
:1013C000A6E3B0E0E6E3F0E08181482F8A81282F90
:1013D00030E081E090E002C0880F991F2A95E2F783
:1013E0008095842311968C93A9E3B0E0E9E3F0E0C3
:1013F0008281482F8A81282F30E081E090E0022E00
:1014000002C0880F991F0A94E2F7842B12968C93DE
:1014100012977DC0A3E3B0E0E3E3F0E08181482FC1
:101420008A81282F30E081E090E002C0880F991F68
:101430002A95E2F78095842311968C93A6E3B0E079
:10144000E6E3F0E08281482F8A81282F30E081E0B6
:1014500090E0022E02C0880F991F0A94E2F7842BB5
:1014600012968C93129753C0A9E3B0E0E9E3F0E041
:101470008181482F8A81282F30E081E090E002C0EE
:10148000880F991F2A95E2F78095842311968C93F3
:10149000A3E3B0E0E3E3F0E08281482F8A81282FC4
:1014A00030E081E090E0022E02C0880F991F0A947C
:1014B000E2F7842B12968C93129729C0A0E3B0E038
:1014C000E0E3F0E08181482F8A81282F30E081E03D
:1014D00090E002C0880F991F2A95E2F78095842337
:1014E00011968C93A0E3B0E0E0E3F0E08281482F16
:1014F0008A81282F30E081E090E0022E02C0880F20
:10150000991F0A94E2F7842B12968C9312972996CE
:101510000FB6F894DEBF0FBECDBFCF91DF91089517
:10152000DF93CF93CDB7DEB729970FB6F894DEBF20
:101530000FBECDBF89836A834B838A81883008F0D0
:101540007CC18B81813009F079C08981282F30E0FE
:1015500039872887888599858C309105B9F0288549
:1015600039852D3031053CF4888599858530910584
:1015700009F44EC062C12885398521323105E1F078
:10158000888599858832910569F157C1A9E3B0E052
:10159000E9E3F0E08281482F8A81282F30E081E062
:1015A00090E0022E02C0880F991F0A94E2F7842B64
:1015B00012968C93129741C1A6E3B0E0E6E3F0E007
:1015C0008281482F8A81282F30E081E090E0022E2E
:1015D00002C0880F991F0A94E2F7842B12968C930D
:1015E00012972BC1A3E3B0E0E3E3F0E08281482F40
:1015F0008A81282F30E081E090E0022E02C0880F1F
:10160000991F0A94E2F7842B12968C93129715C1B6
:10161000A0E3B0E0E0E3F0E08281482F8A81282F48
:1016200030E081E090E0022E02C0880F991F0A94FA
:10163000E2F7842B12968C931297FFC08B8188233C
:1016400009F07EC08981282F30E03F832E838E8170
:101650009F818C30910509F445C02E813F812D304A
:1016600031053CF48E819F818530910509F451C08C
:10167000E4C02E813F812132310531F08E819F817E
:1016800088329105C1F0D9C0A6E3B0E0E6E3F0E00E
:101690008281482F8A81282F30E081E090E0022E5D
:1016A00002C0880F991F0A94E2F78095842312964E
:1016B0008C931297C2C0A3E3B0E0E3E3F0E0828131
:1016C000482F8A81282F30E081E090E0022E02C06E
:1016D000880F991F0A94E2F78095842312968C93C1
:1016E0001297ABC0A9E3B0E0E9E3F0E08281482FB4
:1016F0008A81282F30E081E090E0022E02C0880F1E
:10170000991F0A94E2F78095842312968C9312977E
:1017100094C0A0E3B0E0E0E3F0E08281482F8A814A
:10172000282F30E081E090E0022E02C0880F991F40
:101730000A94E2F78095842312968C9312977DC0C9
:101740008B81823009F079C08981282F30E03D8378
:101750002C838C819D818C30910509F443C02C81B0
:101760003D812D3031053CF48C819D818530910582
:1017700009F44EC062C02C813D812132310531F027
:101780008C819D8188329105B9F057C0A6E3B0E005
:10179000E6E3F0E08281482F8A81282F30E081E063
:1017A00090E0022E02C0880F991F0A94E2F7842766
:1017B00012968C93129741C0A3E3B0E0E3E3F0E00C
:1017C0008281482F8A81282F30E081E090E0022E2C
:1017D00002C0880F991F0A94E2F7842712968C930F
:1017E00012972BC0A9E3B0E0E9E3F0E08281482F33
:1017F0008A81282F30E081E090E0022E02C0880F1D
:10180000991F0A94E2F7842712968C93129715C0B9
:10181000A0E3B0E0E0E3F0E08281482F8A81282F46
:1018200030E081E090E0022E02C0880F991F0A94F8
:10183000E2F7842712968C93129729960FB6F894A4
:10184000DEBF0FBECDBFCF91DF910895DF93CF9361
:1018500000D000D00F92CDB7DEB78A836B838B8127
:10186000883008F068C08A81282F30E03D832C83BF
:101870004C815D814C305105B9F08C819D818D305A
:1018800091053CF42C813D812530310509F442C09D
:1018900052C04C815D8141325105C1F08C819D81E6
:1018A0008832910529F147C0E9E3F0E08081282FD3
:1018B00030E08B81882F90E0A90102C055954795B3
:1018C0008A95E2F7CA018170898335C0E6E3F0E0CA
:1018D0008081282F30E08B81882F90E0A90102C001
:1018E000559547958A95E2F7CA018170898323C08F
:1018F000E3E3F0E08081282F30E08B81882F90E0B7
:10190000A90102C0559547958A95E2F7CA018170F1
:10191000898311C0E0E3F0E08081282F30E08B81E3
:10192000882F90E0A90102C0559547958A95E2F766
:10193000CA018170898389810F900F900F900F9059
:101940000F90CF91DF910895DF93CF9300D000D017
:1019500000D0CDB7DEB789836A834B832C8389811E
:10196000833008F081C08A81843008F07DC08B818B
:10197000883008F079C08C81843008F075C0898186
:10198000882F90E0009709F06FC08A81282F30E0FF
:101990003E832D838D819E818130910521F12D81A2
:1019A0003E81223031052CF48D819E81009761F0BB
:1019B00046C02D813E812230310521F18D819E81ED
:1019C0008330910571F13BC0A3E5B0E0E3E5F0E0C1
:1019D0008081877F8C93A3E5B0E0E3E5F0E0808130
:1019E0008F7B8C932CC0A3E5B0E0E3E5F0E0808131
:1019F00088608C93A3E5B0E0E3E5F0E080818F7B25
:101A00008C931DC0A3E5B0E0E3E5F0E08081886041
:101A10008C93A3E5B0E0E3E5F0E0808180648C93F3
:101A20000EC0A3E5B0E0E3E5F0E08081877F8C9312
:101A3000A3E5B0E0E3E5F0E0808180648C93A3E56A
:101A4000B0E0E3E5F0E08081282F2F7C8C81882FA7
:101A500090E082959295907F9827807F9827822B9F
:101A60008C938B8180936A0126960FB6F894DEBF23
:101A70000FBECDBFCF91DF910895DF93CF930F922B
:101A8000CDB7DEB78983A3E5B0E0E3E5F0E0808180
:101A900080688C930F90CF91DF910895DF93CF935F
:101AA0000F92CDB7DEB789838981883098F4A9E594
:101AB000B0E0E9E5F0E08081482F8981282F30E00F
:101AC00081E090E0022E02C0880F991F0A94E2F78D
:101AD000842B8C930F90CF91DF910895DF93CF9358
:101AE0000F92CDB7DEB7898389818830A0F4A9E54C
:101AF000B0E0E9E5F0E08081482F8981282F30E0CF
:101B000081E090E0022E02C0880F991F0A94E2F74C
:101B1000809584238C930F90CF91DF910895DF936C
:101B2000CF9300D000D00F92CDB7DEB79A838983D0
:101B30006B8389819A810097E1F08B81282F30E0B7
:101B40003D832C838C819D81009731F02C813D81D8
:101B50002130310541F00DC089819A8190936F0148
:101B600080936E0106C089819A8190937101809360
:101B700070010F900F900F900F900F90CF91DF9109
:101B80000895DF93CF930F92CDB7DEB78983898114
:101B9000882F90E0009759F4A3E5B0E0E3E5F0E08A
:101BA0008081982F987F80916A01892B8C930F9068
:101BB000CF91DF910895DF93CF930F92CDB7DEB72A
:101BC00089838981882F90E0009739F4A3E5B0E0FC
:101BD000E3E5F0E08081887F8C930F90CF91DF91D7
:101BE0000895DF93CF9300D00F92CDB7DEB78983EE
:101BF0007B836A838981882F90E0009721F4ECE54C
:101C0000F0E08A8180830F900F900F90CF91DF9149
:101C10000895EF92FF920F931F93DF93CF93CDB769
:101C2000DEB761970FB6F894DEBF0FBECDBF8B87CE
:101C30004C875D876E877F878B85882F90E0009724
:101C400009F0B3C080916A01282F30E0398B288BCE
:101C5000888999898330910529F128893989243027
:101C600031055CF4888999898130910589F028894A
:101C700039892230310589F023C0888999898430D7
:101C80009105A9F02889398925303105A9F018C0B6
:101C900081E090E09A83898313C088E090E09A8382
:101CA00089830EC080E490E09A83898309C080E034
:101CB00091E09A83898304C080E094E09A838983C9
:101CC00089819A81CC01A0E0B0E0BC01CD010E94E5
:101CD0004904DC01CB01BC01CD0120E034E244EF3A
:101CE0005AE40E941903DC01CB018F839887A987EE
:101CF000BA876F81788589859A8520E030E040E851
:101D000053E40E941F02DC01CB018B839C83AD83D3
:101D1000BE836C857D858E859F850E944904DC018C
:101D2000CB01BC01CD0120E030E04AE754E40E9441
:101D30001903DC01CB01BC01CD012B813C814D811C
:101D40005E810E941903DC01CB01BC01CD010E9420
:101D50004900DC01CB0190936C0180936B018C8571
:101D60009D85AE85BF8528EE33E040E050E0BC01A4
:101D7000CD010E94950FDA01C9017C018D016B81B3
:101D80007C818D819E810E9449009B01AC01C8012C
:101D9000B7010E94950FDC01CB01819580936D0105
:101DA000E2E5F0E080916D01808361960FB6F894D2
:101DB000DEBF0FBECDBFCF91DF911F910F91FF907E
:101DC000EF9008951F920F920FB60F9211242F9348
:101DD0003F934F935F936F937F938F939F93AF93B3
:101DE000BF93EF93FF93DF93CF93CDB7DEB780918F
:101DF0007201909173010196909373018093720127
:101E000080916B0190916C019C012F5F3F4F8091FD
:101E100072019091730128173907A1F4E2E5F0E00F
:101E200080916D01808310927301109272018091F4
:101E30006E0190916F01009729F0E0916E01F09191
:101E40006F010995CF91DF91FF91EF91BF91AF9114
:101E50009F918F917F916F915F914F913F912F91C2
:101E60000F900FBE0F901F901895DF93CF9300D067
:101E7000CDB7DEB71A82198285E067E04AE50E9495
:101E8000AA0881E263E04AE50E94AA0881E063E0D3
:101E900041E00E94B70680E063E044E022E00E9457
:101EA000A40C80E00E94C10D85E067E041E00E9443
:101EB000900A80E00E9449078A838A81882F90E0F7
:101EC000A0E0B0E0BC01CD010E944904DC01CB01DF
:101ED000BC01CD0120E030E040E751E40E941F0248
:101EE000DC01CB01BC01CD0120E030E04FE753E441
:101EF0000E941903DC01CB01BC01CD0120E030E0E0
:101F000040E851E40E94F201DC01CB01BC01CD01AB
:101F10000E944900DC01CB0189838981282F30E0B0
:101F200080E0B9010E94F10DBFCFA1E21A2EAA1BD9
:101F3000BB1BFD010DC0AA1FBB1FEE1FFF1FA21779
:101F4000B307E407F50720F0A21BB30BE40BF50B76
:101F5000661F771F881F991F1A9469F760957095FF
:101F6000809590959B01AC01BD01CF0108952F9202
:101F70003F924F925F926F927F928F929F92AF9219
:101F8000BF92CF92DF92EF92FF920F931F93CF9366
:101F9000DF93CDB7DEB7CA1BDB0B0FB6F894DEBFFD
:101FA0000FBECDBF09942A88398848885F846E8423
:101FB0007D848C849B84AA84B984C884DF80EE806D
:101FC000FD800C811B81AA81B981CE0FD11D0FB676
:101FD000F894DEBF0FBECDBFED010895F894FFCF9A
:101FE00000000000000000000001020203030303E0
:101FF0000404040404040404050505050505050599
:102000000505050505050505060606060606060678
:102010000606060606060606060606060606060660
:102020000606060606060606070707070707070748
:102030000707070707070707070707070707070730
:102040000707070707070707070707070707070720
:102050000707070707070707070707070707070710
:1020600007070707070707070808080808080808F8
:1020700008080808080808080808080808080808E0
:1020800008080808080808080808080808080808D0
:1020900008080808080808080808080808080808C0
:1020A00008080808080808080808080808080808B0
:1020B00008080808080808080808080808080808A0
:1020C0000808080808080808080808080808080890
:1020D0000808080808080808080808080808080880
:0820E0000808080808080808B8
:00000001FF
