:100000000C942A000C9476150C94A9150C94DC150C
:100010000C9447000C9447000C9447000C94470044
:100020000C9447000C9447000C943F1B0C944F1BFE
:100030000C9447000C9447000C9447000C94470024
:100040000C9447000C9447000C9447000C94470014
:100050000C94470011241FBECFE5D8E0DEBFCDBF12
:1000600011E0A0E6B0E0EAE9FCE302C005900D92E1
:10007000A838B107D9F711E0A8E8B1E001C01D9296
:10008000AD39B107E1F70E94A21B0C944B1E0C94F2
:100090000000EF92FF920F931F937B018C0120E0F1
:1000A00030E040E05FE40E94F50388238CF0C80153
:1000B000B70120E030E040E05FE40E94C1010E940F
:1000C00055049B01AC01205030404040504806C0D0
:1000D000C801B7010E9455049B01AC01B901CA01D6
:1000E0001F910F91FF90EF900895A0E0B0E0EBE733
:1000F000F0E00C94E31DDC012B01FA019C9192309D
:1001000008F439C1EB018881823008F433C194309E
:1001100069F4843009F02FC111969C91119789815F
:10012000981709F428C1AFE7B0E025C1843009F47D
:1001300021C18230A9F4923009F01DC19A01AD01AC
:1001400088E0EA010990AE01E90109929E0181501F
:10015000C1F7E201898111969C918923818308C1AD
:10016000923009F407C112962D903C901397EB0141
:100170008A819B811496AD90BD90CD90DC901797AD
:10018000EC80FD800E811F819101281B390BB90184
:1001900037FF04C066277727621B730B6032710537
:1001A0000CF061C0121613066CF537014801062EDB
:1001B00004C096948794779467940A94D2F721E0C8
:1001C00030E040E050E004C0220F331F441F551FB1
:1001D0006A95D2F721503040404050402E213F21B7
:1001E00040235123211531054105510521F021E01E
:1001F00030E040E050E079018A01E628F72808293C
:1002000019293CC0232BD1F1260E371E350146019A
:10021000062E04C096948794779467940A94D2F734
:1002200021E030E040E050E004C0220F331F441FC3
:10023000551F6A95D2F721503040404050402A2146
:100240003B214C215D21211531054105510521F04E
:1002500021E030E040E050E059016A01A628B728CB
:10026000C828D9280BC0821593052CF01C01AA249C
:10027000BB24650103C0EE24FF24870111969C91E5
:10028000D20111968C91981709F445C0992339F041
:10029000A80197012A193B094C095D0906C0A6016E
:1002A00095012E193F09400B510B57FD08C01182D3
:1002B0003382228224833583468357831DC081E0A5
:1002C00081833382228288279927DC01821B930B4A
:1002D000A40BB50B84839583A683B7830DC0220F2F
:1002E000331F441F551F24833583468357838281E0
:1002F000938101979383828324813581468157813D
:10030000DA01C9010197A109B1098F5F9F4FAF4F72
:10031000BF4328F30BC0918333822282EA0CFB1C7B
:100320000C1D1D1DE482F5820683178383E0808304
:10033000248135814681578157FF1AC0C901AA27F8
:1003400097FDA095BA2F81709070A070B0705695EF
:10035000479537952795822B932BA42BB52B848318
:100360009583A683B7838281938101969383828349
:10037000DF0101C0D201CD01CDB7DEB7E2E10C94BF
:10038000FF1DA0E2B0E0E7ECF1E00C94EF1D698303
:100390007A838B839C832D833E834F835887E9E048
:1003A000EE2EF12CEC0EFD1ECE010196B7010E943F
:1003B00046068E010F5E1F4FCE010596B8010E94C2
:1003C00046068A8991E089278A8BC701B801AE0168
:1003D000475E5F4F0E9475000E947105A096E6E09F
:1003E0000C940B1EA0E2B0E0E8EFF1E00C94EF1DDE
:1003F00069837A838B839C832D833E834F835887C5
:10040000F9E0EF2EF12CEC0EFD1ECE010196B701A6
:100410000E9446068E010F5E1F4FCE010596B80161
:100420000E944606C701B801AE01475E5F4F0E94B9
:1004300075000E947105A096E6E00C940B1EA0E2E8
:10044000B0E0E5E2F2E00C94E31D69837A838B83EC
:100450009C832D833E834F835887CE010196BE0136
:10046000675F7F4F0E944606CE010596BE016F5E14
:100470007F4F0E9446069985923088F089898230A4
:10048000C8F0943019F4823051F404C0843029F457
:10049000923081F48FE790E0C6C0923049F420E0BA
:1004A0009A858A89981321E02A87CE010996BBC0D4
:1004B000823049F420E09A858A89981321E02A8BBA
:1004C000CE014196B0C02D843E844F8458886D88FB
:1004D0007E888F88988CEE24FF248701AA24BB2471
:1004E000650140E050E060E070E0E0E0F0E0C10174
:1004F00081709070892BE9F0E60CF71C081D191D1E
:100500009A01AB012A0D3B1D4C1D5D1D80E090E062
:10051000A0E0B0E0E614F7040805190520F481E036
:1005200090E0A0E0B0E0BA01A901480F591F6A1F8E
:100530007B1FAA0CBB1CCC1CDD1C97FE08C081E0F5
:1005400090E0A0E0B0E0A82AB92ACA2ADB2A3196B6
:10055000E032F10549F0660C771C881C991C569412
:10056000479437942794C3CFFA85EA892B893C892D
:100570008B859C85280F391F2E5F3F4F17C0CA01FE
:1005800081709070892B61F016950795F794E79428
:1005900080E090E0A0E0B0E8E82AF92A0A2B1B2BC3
:1005A00076956795579547952F5F3F4F77FDE7CF36
:1005B0000CC0440F551F661F771F17FD4160EE0CDE
:1005C000FF1C001F111F21503040403090E05907A0
:1005D00090E0690790E4790760F32B8F3C8FDB0193
:1005E000CA018F779070A070B07080349105A1051A
:1005F000B10561F447FD0AC0E114F10401051105DC
:1006000029F0405C5F4F6F4F7F4F40781A8EFE1786
:1006100011F081E08A8F4D8F5E8F6F8F78A383E01A
:10062000898FCE0149960E947105A096E2E10C9453
:10063000FF1DA8E1B0E0EFE1F3E00C94EB1D69834E
:100640007A838B839C832D833E834F835887B9E0C5
:10065000EB2EF12CEC0EFD1ECE010196B7010E948F
:1006600046068E010F5E1F4FCE010596B8010E940F
:1006700046062985223008F47EC03989323010F4CC
:10068000B8017CC08A859A8989278A87243011F02D
:10069000223031F4231709F06EC06FE770E06EC0AE
:1006A000343039F41D861E861F86188A1C861B86E8
:1006B00004C0323021F484E08987B7015FC02B8504
:1006C0003C858B899C89281B390B3C872B87ED84C3
:1006D000FE840F851889AD88BE88CF88D88CEA142F
:1006E000FB040C051D0540F4EE0CFF1C001F111F40
:1006F000215030403C872B8720E030E040E050E044
:1007000080E090E0A0E0B0E460E070E0EA14FB0478
:100710000C051D0540F0282B392B4A2B5B2BEA18C2
:10072000FB080C091D09B695A79597958795EE0CC2
:10073000FF1C001F111F6F5F7F4F6F31710531F775
:10074000DA01C9018F779070A070B0708034910584
:10075000A105B10561F427FD0AC0E114F10401050A
:10076000110529F0205C3F4F4F4F5F4F20782D87B8
:100770003E874F87588BBE01675F7F4FCB010E943A
:1007800071056896EAE00C94071EA8E1B0E0EBEC76
:10079000F3E00C94EF1D69837A838B839C832D8314
:1007A0003E834F83588789E0E82EF12CEC0EFD1E26
:1007B000CE010196B7010E9446068E010F5E1F4FC3
:1007C000CE010596B8010E9446068985823040F028
:1007D0008989823028F0C701B8010E94BE0601C095
:1007E0008FEF6896E6E00C940B1EA8E1B0E0EBEF0B
:1007F000F3E00C94EF1D69837A838B839C832D83B4
:100800003E834F83588789E0E82EF12CEC0EFD1EC5
:10081000CE010196B7010E9446068E010F5E1F4F62
:10082000CE010596B8010E9446068985823040F0C7
:100830008989823028F0C701B8010E94BE0601C034
:100840008FEF6896E6E00C940B1EA8E1B0E0EBE2B7
:10085000F4E00C94EF1D69837A838B839C832D8352
:100860003E834F83588789E0E82EF12CEC0EFD1E65
:10087000CE010196B7010E9446068E010F5E1F4F02
:10088000CE010596B8010E9446068985823040F067
:100890008989823028F0C701B8010E94BE0601C0D4
:1008A00081E06896E6E00C940B1EACE0B0E0EBE56E
:1008B000F4E00C94F31D69837A838B839C83CE01CF
:1008C0000196BE016B5F7F4F0E9446068D8182308C
:1008D00061F1823050F1843021F48E81882351F10E
:1008E0002EC02F81388537FD20C06E812F31310514
:1008F0001CF06623F9F023C08EE190E0821B930B7D
:1009000029853A854B855C8504C056954795379572
:1009100027958A95D2F76623B1F05095409530958A
:1009200021953F4F4F4F5F4F0EC020E030E040E039
:1009300050E009C02FEF3FEF4FEF5FE704C020E02A
:1009400030E040E050E8B901CA012C96E2E00C9496
:100950000F1EA8E0B0E0EFEAF4E00C94EB1D7B0181
:100960008C01611571058105910519F482E0898377
:1009700060C083E089838EE1C82ED12CDC82CB82DB
:10098000ED82FE820F831887C801B7010E942205FD
:10099000FC013197F7FF3BC0222733272E1B3F0B6B
:1009A00057016801022E04C0D694C794B794A79447
:1009B0000A94D2F740E050E060E070E081E090E01F
:1009C000A0E0B0E004C0880F991FAA1FBB1F2A95A2
:1009D000D2F70197A109B1098E219F21A023B1234C
:1009E0000097A105B10521F041E050E060E070E022
:1009F0004A295B296C297D294D835E836F83788723
:100A00008EE190E08E1B9F0B9C838B8312C03097EE
:100A100081F00E2E04C0EE0CFF1C001F111F0A9463
:100A2000D2F7ED82FE820F831887CE1ADF0ADC82AE
:100A3000CB821A82CE0101960E9471052896EAE0C7
:100A40000C94071EEF92FF920F931F937B018C0172
:100A500080E0E81680E0F80681E0080780E01807EB
:100A600088F48FEFE816F1040105110531F028F044
:100A700088E090E0A0E0B0E017C080E090E0A0E067
:100A8000B0E012C080E0E81680E0F80680E00807D9
:100A900081E0180728F088E190E0A0E0B0E004C011
:100AA00080E190E0A0E0B0E020E230E040E050E003
:100AB000281B390B4A0B5B0B04C016950795F7945E
:100AC000E7948A95D2F7F701E957FF4F8081281BF9
:100AD000310941095109C9011F910F91FF90EF9010
:100AE0000895DF92EF92FF920F931F93FC01E48031
:100AF000F58006811781D1808081823048F480E0C2
:100B000090E0A0E1B0E0E82AF92A0A2B1B2BA5C04F
:100B1000843009F49FC0823021F4EE24FF24870141
:100B200005C0E114F1040105110519F4E0E0F0E05D
:100B300096C0628173819FEF623879070CF05BC0C9
:100B400022E83FEF261B370B2A3131052CF020E03D
:100B500030E040E050E02AC0B801A701022E04C0F6
:100B600076956795579547950A94D2F781E090E07E
:100B7000A0E0B0E004C0880F991FAA1FBB1F2A95F0
:100B8000D2F70197A109B1098E219F21A023B1239A
:100B90000097A105B10521F081E090E0A0E0B0E070
:100BA0009A01AB01282B392B4A2B5B2BDA01C901A7
:100BB0008F779070A070B07080349105A105B10559
:100BC00039F427FF09C0205C3F4F4F4F5F4F04C0EF
:100BD000215C3F4F4F4F5F4FE0E0F0E02030A0E05E
:100BE0003A07A0E04A07A0E45A0710F0E1E0F0E07D
:100BF00079018A0127C06038710564F5FB01E1586D
:100C0000FF4FD801C7018F779070A070B07080340B
:100C10009105A105B10539F4E7FE0DC080E490E02F
:100C2000A0E0B0E004C08FE390E0A0E0B0E0E80E08
:100C3000F91E0A1F1B1F17FF05C016950795F7948D
:100C4000E794319687E016950795F794E7948A958F
:100C5000D1F705C0EE24FF248701EFEFF0E06E2FFF
:100C6000679566276795902F9F77D794DD24D79453
:100C70008E2F8695492F462B582F5D29B701CA0123
:100C80001F910F91FF90EF90DF900895FC01DB0121
:100C9000408151812281622F6F7770E0221F2227CD
:100CA000221F9381892F880F822B282F30E0991FD4
:100CB0009927991F11969C93119721153105A9F534
:100CC000411551056105710511F482E037C082E8D4
:100CD0009FEF13969C938E9312979A01AB0167E056
:100CE000220F331F441F551F6A95D1F783E08C9361
:100CF0000DC0220F331F441F551F12968D919C91DA
:100D00001397019713969C938E931297203080E04F
:100D1000380780E0480780E4580758F314962D936D
:100D20003D934D935C93179708952F3F310579F4C8
:100D3000411551056105710519F484E08C930895FE
:100D400064FF03C081E08C9312C01C9210C02F5727
:100D5000304013963C932E93129783E08C9387E058
:100D6000440F551F661F771F8A95D1F7706414963C
:100D70004D935D936D937C93179708951F93DC01BA
:100D8000FB019C91923008F447C08081823008F4C6
:100D900043C0943051F411961C91843099F58181AF
:100DA000682F70E0611B71093FC0843021F09230E0
:100DB00031F48230B9F18181882389F12DC01196F7
:100DC0001C9111978230F1F081811817D9F4129695
:100DD0002D913C911397828193818217930794F010
:100DE00028173907BCF014968D919D910D90BC91F8
:100DF000A02D2481358146815781281739074A075C
:100E00005B0718F4112341F00AC082179307A40767
:100E1000B50740F4112319F061E070E005C06FEFF1
:100E20007FEF02C060E070E0CB011F910895DF9377
:100E3000CF93CDB7DEB7E8970FB6F894DEBF0FBEFD
:100E4000CDBF8CE06FEF0E94320F81E260E04AE597
:100E50000E94F90F81E261E04AE50E94F90F81E208
:100E600062E04AE50E94F90F80E090E0A0EFB1E473
:100E70008DAB9EABAFABB8AF6DA97EA98FA998AD76
:100E800020E030E04AEF54E40E941F02DC01CB0175
:100E900089AB9AABABABBCAB69A97AA98BA99CA96E
:100EA00020E030E040E85FE30E94250488232CF432
:100EB00081E090E098AB8FA73FC069A97AA98BA980
:100EC0009CA920E03FEF4FE757E40E94C5031816A6
:100ED0004CF56DA97EA98FA998AD20E030E040E2E5
:100EE00051E40E941F02DC01CB01BC01CD010E9434
:100EF0004900DC01CB0198AB8FA70FC088EC90E0D4
:100F00009EA78DA78DA59EA50197F1F79EA78DA7FA
:100F10008FA598A9019798AB8FA78FA598A900973F
:100F200069F714C069A97AA98BA99CA90E944900F4
:100F3000DC01CB0198AB8FA78FA598A99CA78BA7A5
:100F40008BA59CA50197F1F79CA78BA78FE30E9427
:100F5000BD0A80E090E0A8E4B2E48FA398A7A9A717
:100F6000BAA76FA178A589A59AA520E030E04AEF3D
:100F700054E40E941F02DC01CB018BA39CA3ADA310
:100F8000BEA36BA17CA18DA19EA120E030E040E832
:100F90005FE30E94250488232CF481E090E09AA36B
:100FA00089A33FC06BA17CA18DA19EA120E03FEF52
:100FB0004FE757E40E94C50318164CF56FA178A5BA
:100FC00089A59AA520E030E040E251E40E941F028A
:100FD000DC01CB01BC01CD010E944900DC01CB0149
:100FE0009AA389A30FC088EC90E098A38F8F8F8D70
:100FF00098A10197F1F798A38F8F89A19AA10197E2
:101000009AA389A389A19AA1009769F714C06BA13B
:101010007CA18DA19EA10E944900DC01CB019AA375
:1010200089A389A19AA19E8F8D8F8D8D9E8D019709
:10103000F1F79E8F8D8F8FE00E94BD0A80E090E0D7
:10104000A8E4B2E4898F9A8FAB8FBC8F698D7A8DBB
:101050008B8D9C8D20E030E04AEF54E40E941F020B
:10106000DC01CB018D8B9E8BAF8BB88F6D897E8918
:101070008F89988D20E030E040E85FE30E942504EE
:1010800088232CF481E090E09C8B8B8B3FC06D8992
:101090007E898F89988D20E03FEF4FE757E40E94CB
:1010A000C50318164CF5698D7A8D8B8D9C8D20E0CB
:1010B00030E040E251E40E941F02DC01CB01BC01A0
:1010C000CD010E944900DC01CB019C8B8B8B0FC0B2
:1010D00088EC90E09A8B898B89899A890197F1F73E
:1010E0009A8B898B8B899C8901979C8B8B8B8B89A5
:1010F0009C89009769F714C06D897E898F89988DC6
:101100000E944900DC01CB019C8B8B8B8B899C89D5
:10111000988B8F878F8598890197F1F7988B8F87A8
:101120000E946A0C86E00E94BD0A80E090E0A8E47C
:10113000B2E48B879C87AD87BE876B857C858D8568
:101140009E8520E030E04AEF54E40E941F02DC015B
:10115000CB018F839887A987BA876F817885898526
:101160009A8520E030E040E85FE30E942504882370
:101170002CF481E090E09E838D833FC06F81788561
:1011800089859A8520E03FEF4FE757E40E94C50329
:1011900018164CF56B857C858D859E8520E030E0AA
:1011A00040E251E40E941F02DC01CB01BC01CD01F1
:1011B0000E944900DC01CB019E838D830FC088EC27
:1011C00090E09C838B838B819C810197F1F79C83BA
:1011D0008B838D819E8101979E838D838D819E81DE
:1011E000009769F714C06F81788589859A850E9478
:1011F0004900DC01CB019E838D838D819E819A8382
:10120000898389819A810197F1F79A838983E89686
:101210000FB6F894DEBF0FBECDBFCF91DF9108951A
:10122000DF93CF93CDB7DEB7E1970FB6F894DEBF6B
:101230000FBECDBF89AB81E261E040E00E94DF11CB
:1012400081E260E041E00E94DF118CE069A90E9428
:10125000740F81E262E040E00E94DF1181E262E00F
:1012600041E00E94DF1180E090E0A0E8BFE38DA79D
:101270009EA7AFA7B8AB6DA57EA58FA598A92BEAB1
:101280003AEA4AE250E40E941F02DC01CB0189A73E
:101290009AA7ABA7BCA769A57AA58BA59CA520E0BA
:1012A00030E040E85FE30E94250488231CF481E0DD
:1012B00088A791C069A57AA58BA59CA520E030E000
:1012C0004FE753E40E94C50318160CF07BC06DA5D0
:1012D0007EA58FA598A920E030E04AE754E40E945B
:1012E0001903DC01CB018CA39DA3AEA3BFA36CA10A
:1012F0007DA18EA19FA120E030E04AEF54E40E943E
:101300001F02DC01CB0188A399A3AAA3BBA368A1F8
:1013100079A18AA19BA120E030E040E85FE30E9430
:10132000250488232CF481E090E09F8F8E8F3FC0AE
:1013300068A179A18AA19BA120E03FEF4FE757E484
:101340000E94C50318164CF56CA17DA18EA19FA12A
:1013500020E030E040E251E40E941F02DC01CB01BA
:10136000BC01CD010E944900DC01CB019F8F8E8F13
:101370000FC088EC90E09D8F8C8F8C8D9D8D019798
:10138000F1F79D8F8C8F8E8D9F8D01979F8F8E8F04
:101390008E8D9F8D009769F724C068A179A18AA1DD
:1013A0009BA10E944900DC01CB019F8F8E8F8E8D07
:1013B0009F8D9B8F8A8F8A8D9B8D0197F1F79B8FD5
:1013C0008A8F0FC069A57AA58BA59CA50E944900AC
:1013D000DC01CB0188A788A5898F898D8A95F1F7D3
:1013E000898F81E262E040E00E94DF1180E090E0BE
:1013F000A0E8BFE38D8B9E8BAF8BB88F6D897E8904
:101400008F89988D2BEA3AEA4AE250E40E941F0243
:10141000DC01CB01898B9A8BAB8BBC8B69897A8978
:101420008B899C8920E030E040E85FE30E9425043E
:1014300088231CF481E0888B91C069897A898B8923
:101440009C8920E030E04FE753E40E94C503181662
:101450000CF07BC06D897E898F89988D20E030E00B
:101460004AE754E40E941903DC01CB018C879D8775
:10147000AE87BF876C857D858E859F8520E030E0B7
:101480004AEF54E40E941F02DC01CB018887998750
:10149000AA87BB87688579858A859B8520E030E0AF
:1014A00040E85FE30E94250488232CF481E090E06B
:1014B0009F838E833FC0688579858A859B8520E0E0
:1014C0003FEF4FE757E40E94C50318164CF56C85B3
:1014D0007D858E859F8520E030E040E251E40E94CA
:1014E0001F02DC01CB01BC01CD010E944900DC01DF
:1014F000CB019F838E830FC088EC90E09D838C830B
:101500008C819D810197F1F79D838C838E819F81D2
:1015100001979F838E838E819F81009769F724C0F6
:10152000688579858A859B850E944900DC01CB010D
:101530009F838E838E819F819B838A838A819B81F7
:101540000197F1F79B838A830FC069897A898B8918
:101550009C890E944900DC01CB01888B88898983A2
:1015600089818A95F1F78983E1960FB6F894DEBFF9
:101570000FBECDBFCF91DF910895DF93CF93CDB74D
:10158000DEB7E1970FB6F894DEBF0FBECDBF89ABD3
:1015900081E261E040E00E94DF1181E260E040E032
:1015A0000E94DF118CE069A90E94740F81E262E061
:1015B00040E00E94DF1181E262E041E00E94DF1121
:1015C00080E090E0A0E8BFE38DA79EA7AFA7B8ABEF
:1015D0006DA57EA58FA598A92BEA3AEA4AE250E4C8
:1015E0000E941F02DC01CB0189A79AA7ABA7BCA769
:1015F00069A57AA58BA59CA520E030E040E85FE3D3
:101600000E94250488231CF481E088A791C069A565
:101610007AA58BA59CA520E030E04FE753E40E941B
:10162000C50318160CF07BC06DA57EA58FA598A9E3
:1016300020E030E04AE754E40E941903DC01CB01CA
:101640008CA39DA3AEA3BFA36CA17DA18EA19FA1DE
:1016500020E030E04AEF54E40E941F02DC01CB019D
:1016600088A399A3AAA3BBA368A179A18AA19BA1DE
:1016700020E030E040E85FE30E94250488232CF45A
:1016800081E090E09F8F8E8F3FC068A179A18AA1F1
:101690009BA120E03FEF4FE757E40E94C5031816D7
:1016A0004CF56CA17DA18EA19FA120E030E040E22D
:1016B00051E40E941F02DC01CB01BC01CD010E945C
:1016C0004900DC01CB019F8F8E8F0FC088EC90E02A
:1016D0009D8F8C8F8C8D9D8D0197F1F79D8F8C8FB9
:1016E0008E8D9F8D01979F8F8E8F8E8D9F8D0097F2
:1016F00069F724C068A179A18AA19BA10E94490031
:10170000DC01CB019F8F8E8F8E8D9F8D9B8F8A8F5B
:101710008A8D9B8D0197F1F79B8F8A8F0FC069A5EA
:101720007AA58BA59CA50E944900DC01CB0188A766
:1017300088A5898F898D8A95F1F7898F81E262E08A
:1017400040E00E94DF1180E090E0A0E8BFE38D8BD5
:101750009E8BAF8BB88F6D897E898F89988D2BEA90
:101760003AEA4AE250E40E941F02DC01CB01898B75
:101770009A8BAB8BBC8B69897A898B899C8920E099
:1017800030E040E85FE30E94250488231CF481E0F8
:10179000888B91C069897A898B899C8920E030E0A7
:1017A0004FE753E40E94C50318160CF07BC06D8907
:1017B0007E898F89988D20E030E04AE754E40E94CA
:1017C0001903DC01CB018C879D87AE87BF876C85B1
:1017D0007D858E859F8520E030E04AEF54E40E94AD
:1017E0001F02DC01CB0188879987AA87BB876885A0
:1017F00079858A859B8520E030E040E85FE30E94A0
:10180000250488232CF481E090E09F838E833FC0E1
:10181000688579858A859B8520E03FEF4FE757E40F
:101820000E94C50318164CF56C857D858E859F85B5
:1018300020E030E040E251E40E941F02DC01CB01D5
:10184000BC01CD010E944900DC01CB019F838E8346
:101850000FC088EC90E09D838C838C819D810197E3
:10186000F1F79D838C838E819F8101979F838E8367
:101870008E819F81009769F724C0688579858A8564
:101880009B850E944900DC01CB019F838E838E8162
:101890009F819B838A838A819B810197F1F79B8338
:1018A0008A830FC069897A898B899C890E94490043
:1018B000DC01CB01888B8889898389818A95F1F73E
:1018C0008983E1960FB6F894DEBF0FBECDBFCF91EE
:1018D000DF910895DF93CF93CDB7DEB72E970FB684
:1018E000F894DEBF0FBECDBF81E00E94BD0A80E04C
:1018F00090E0A0E0B0E48B879C87AD87BE876B85C6
:101900007C858D859E8520E030E04AEF54E40E947E
:101910001F02DC01CB018F839887A987BA876F816B
:10192000788589859A8520E030E040E85FE30E9471
:10193000250488232CF481E090E09E838D833FC0B2
:101940006F81788589859A8520E03FEF4FE757E4DE
:101950000E94C50318164CF56B857C858D859E8588
:1019600020E030E040E251E40E941F02DC01CB01A4
:10197000BC01CD010E944900DC01CB019E838D8317
:101980000FC088EC90E09C838B838B819C810197B6
:10199000F1F79C838B838D819E8101979E838D833C
:1019A0008D819E81009769F714C06F817885898544
:1019B0009A850E944900DC01CB019E838D838D8135
:1019C0009E819A83898389819A810197F1F79A830D
:1019D00089832E960FB6F894DEBF0FBECDBFCF9190
:1019E000DF910895DF93CF9300D00F92CDB7DEB78C
:1019F0009B838A8319828981282F30E08A819B8189
:101A0000FC01E20FF31F80810E94100989818F5F22
:101A100089838981282F30E08A819B81FC01E20F34
:101A2000F31F8081882339F70F900F900F90CF918B
:101A3000DF910895DF93CF9300D0CDB7DEB78983D0
:101A40006A8389818230A8F48A81803190F4898107
:101A5000882F90E000249695879507949695879512
:101A60000794982F802D982F90688A81892B0E9447
:101A7000BD0A0F900F90CF91DF910895DF93CF9320
:101A8000CDB7DEB7EB970FB6F894DEBF0FBECDBF74
:101A900089AF89AD282F30E03BAF2AAF8AAD9BAD2F
:101AA0008C34910539F02AAD3BAD2235310509F46E
:101AB000E9C0CFC180E090E0A8ECB2E48DAB9EAB72
:101AC000AFABB8AF6DA97EA98FA998AD20E030E08B
:101AD0004AEF54E40E941F02DC01CB0189AB9AABB0
:101AE000ABABBCAB69A97AA98BA99CA920E030E07B
:101AF00040E85FE30E94250488232CF481E090E015
:101B000098AB8FA73FC069A97AA98BA99CA920E0AF
:101B10003FEF4FE757E40E94C50318164CF56DA937
:101B20007EA98FA998AD20E030E040E251E40E9408
:101B30001F02DC01CB01BC01CD010E944900DC0188
:101B4000CB0198AB8FA70FC088EC90E09EA78DA724
:101B50008DA59EA50197F1F79EA78DA78FA598A9A2
:101B6000019798AB8FA78FA598A9009769F714C024
:101B700069A97AA98BA99CA90E944900DC01CB0123
:101B800098AB8FA78FA598A99CA78BA78BA59CA581
:101B90000197F1F79CA78BA788E10E94BD0A80E01E
:101BA00090E0A8ECB2E48FA398A7A9A7BAA76FA169
:101BB00078A589A59AA520E030E04AEF54E40E9478
:101BC0001F02DC01CB018BA39CA3ADA3BEA36BA121
:101BD0007CA18DA19EA120E030E040E85FE30E945F
:101BE000250488232CF481E090E09AA389A33FC0C8
:101BF0006BA17CA18DA19EA120E03FEF4FE757E4B0
:101C00000E94C50318164CF56FA178A589A59AA561
:101C100020E030E040E251E40E941F02DC01CB01F1
:101C2000BC01CD010E944900DC01CB019AA389A32C
:101C30000FC088EC90E098A38F8F8F8D98A10197AB
:101C4000F1F798A38F8F89A19AA101979AA389A3ED
:101C500089A19AA1009769F7FCC06BA17CA18DA115
:101C60009EA10E944900DC01CB019AA389A389A10E
:101C70009AA19E8F8D8F8D8D9E8D0197F1F79E8FEE
:101C80008D8FE7C080E090E0A8ECB2E4898F9A8F56
:101C9000AB8FBC8F698D7A8D8B8D9C8D20E030E071
:101CA0004AEF54E40E941F02DC01CB018D8B9E8B16
:101CB000AF8BB88F6D897E898F89988D20E030E059
:101CC00040E85FE30E94250488232CF481E090E043
:101CD0009C8B8B8B3FC06D897E898F89988D20E08E
:101CE0003FEF4FE757E40E94C50318164CF5698D86
:101CF0007A8D8B8D9C8D20E030E040E251E40E9493
:101D00001F02DC01CB01BC01CD010E944900DC01B6
:101D1000CB019C8B8B8B0FC088EC90E09A8B898BCE
:101D200089899A890197F1F79A8B898B8B899C898C
:101D300001979C8B8B8B8B899C89009769F714C0CA
:101D40006D897E898F89988D0E944900DC01CB01C5
:101D50009C8B8B8B8B899C89988B8F878F8598899F
:101D60000197F1F7988B8F878CE10E94BD0A80E084
:101D700090E0A8ECB2E48B879C87AD87BE876B852B
:101D80007C858D859E8520E030E04AEF54E40E94FA
:101D90001F02DC01CB018F839887A987BA876F81E7
:101DA000788589859A8520E030E040E85FE30E94ED
:101DB000250488232CF481E090E09E838D833FC02E
:101DC0006F81788589859A8520E03FEF4FE757E45A
:101DD0000E94C50318164CF56B857C858D859E8504
:101DE00020E030E040E251E40E941F02DC01CB0120
:101DF000BC01CD010E944900DC01CB019E838D8393
:101E00000FC088EC90E09C838B838B819C81019731
:101E1000F1F79C838B838D819E8101979E838D83B7
:101E20008D819E81009769F714C06F8178858985BF
:101E30009A850E944900DC01CB019E838D838D81B0
:101E40009E819A83898389819A810197F1F79A8388
:101E50008983EB960FB6F894DEBF0FBECDBFCF914E
:101E6000DF910895DF93CF9300D000D0CDB7DEB7D8
:101E700089836A838981282F30E03C832B838B817F
:101E80009C818C309105B1F02B813C812D30310546
:101E900034F48B819C8185309105D9F01EC02B8153
:101EA0003C812132310559F08B819C81883291052A
:101EB00059F013C0E9E3F0E08A8181830EC0E6E3C4
:101EC000F0E08A81818309C0E3E3F0E08A818183C5
:101ED00004C0E0E3F0E08A8181830F900F900F90BF
:101EE0000F90CF91DF910895DF93CF9300D000D072
:101EF000CDB7DEB789836A838981282F30E03C83A0
:101F00002B838B819C818C309105B1F02B813C819E
:101F10002D30310534F48B819C8185309105D9F0C9
:101F20001EC02B813C812132310559F08B819C816F
:101F30008832910559F013C0E9E3F0E08A81828389
:101F40000EC0E6E3F0E08A81828309C0E3E3F0E0BB
:101F50008A81828304C0E0E3F0E08A8182830F906B
:101F60000F900F900F90CF91DF910895DF93CF9353
:101F700000D000D0CDB7DEB78A8319828A81282F9E
:101F800030E03C832B838B819C818C309105B1F0B8
:101F90002B813C812D30310534F48B819C8185303F
:101FA0009105D9F01EC02B813C812132310559F0B9
:101FB0008B819C818832910559F013C0E9E3F0E0F0
:101FC000808189830EC0E6E3F0E08081898309C0C7
:101FD000E3E3F0E08081898304C0E0E3F0E0808106
:101FE000898389810F900F900F900F90CF91DF918F
:101FF0000895DF93CF93CDB7DEB729970FB6F89446
:10200000DEBF0FBECDBF89836A834B838A81883050
:1020100008F0CCC18B818A3509F079C08981282FDD
:1020200030E039872887888599858C309105B9F00B
:10203000288539852D3031053CF488859985853092
:10204000910509F44EC0B2C1288539852132310588
:10205000E1F0888599858832910569F1A7C1A9E3E6
:10206000B0E0E9E3F0E08181482F8A81282F30E059
:1020700081E090E0022E02C0880F991F0A94E2F7D7
:10208000842B11968C93119791C1A6E3B0E0E6E3FF
:10209000F0E08181482F8A81282F30E081E090E0B4
:1020A000022E02C0880F991F0A94E2F7842B119622
:1020B0008C9311977BC1A3E3B0E0E3E3F0E081816F
:1020C000482F8A81282F30E081E090E0022E02C064
:1020D000880F991F0A94E2F7842B11968C9311971D
:1020E00065C1A0E3B0E0E0E3F0E08181482F8A81A0
:1020F000282F30E081E090E0022E02C0880F991F67
:102100000A94E2F7842B11968C9311974FC18B811F
:10211000843609F07EC08981282F30E03F832E83EA
:102120008E819F818C30910509F445C02E813F81BD
:102130002D3031053CF48E819F818530910509F465
:1021400051C034C12E813F812132310531F08E8161
:102150009F8188329105C1F029C1A6E3B0E0E6E392
:10216000F0E08181482F8A81282F30E081E090E0E3
:10217000022E02C0880F991F0A94E2F780958423EB
:1021800011968C93119712C1A3E3B0E0E3E3F0E062
:102190008181482F8A81282F30E081E090E0022E53
:1021A00002C0880F991F0A94E2F780958423119644
:1021B0008C931197FBC0A9E3B0E0E9E3F0E08181E3
:1021C000482F8A81282F30E081E090E0022E02C063
:1021D000880F991F0A94E2F78095842311968C93B7
:1021E0001197E4C0A0E3B0E0E0E3F0E08181482F84
:1021F0008A81282F30E081E090E0022E02C0880F13
:10220000991F0A94E2F78095842311968C93119775
:10221000CDC08B81883C09F0C9C08981282F30E06E
:102220003D832C838C819D818C30910509F46BC09A
:102230002C813D812D3031053CF48C819D81853090
:10224000910509F48AC0B2C02C813D81213231054B
:1022500031F08C819D818832910559F1A7C0A6E3A8
:10226000B0E0E6E3F0E08181482F8A81282F30E05A
:1022700081E090E002C0880F991F2A95E2F78095CF
:10228000842311968C93A9E3B0E0E9E3F0E0828126
:10229000482F8A81282F30E081E090E0022E02C092
:1022A000880F991F0A94E2F7842B12968C93129749
:1022B0007DC0A3E3B0E0E3E3F0E08181482F8A81B1
:1022C000282F30E081E090E002C0880F991F2A9506
:1022D000E2F78095842311968C93A6E3B0E0E6E3C1
:1022E000F0E08281482F8A81282F30E081E090E061
:1022F000022E02C0880F991F0A94E2F7842B1296CF
:102300008C93129753C0A9E3B0E0E9E3F0E0818138
:10231000482F8A81282F30E081E090E002C0880FAA
:10232000991F2A95E2F78095842311968C93A3E355
:10233000B0E0E3E3F0E08281482F8A81282F30E08B
:1023400081E090E0022E02C0880F991F0A94E2F704
:10235000842B12968C93129729C0A0E3B0E0E0E39F
:10236000F0E08181482F8A81282F30E081E090E0E1
:1023700002C0880F991F2A95E2F780958423119651
:102380008C93A0E3B0E0E0E3F0E08281482F8A8103
:10239000282F30E081E090E0022E02C0880F991FC4
:1023A0000A94E2F7842B12968C93129729960FB613
:1023B000F894DEBF0FBECDBFCF91DF910895DF93BC
:1023C000CF93CDB7DEB729970FB6F894DEBF0FBE17
:1023D000CDBF89836A834B838A81883008F07CC1B2
:1023E0008B81813009F079C08981282F30E03987CD
:1023F0002887888599858C309105B9F0288539859D
:102400002D3031053CF4888599858530910509F496
:102410004EC062C12885398521323105E1F08885B9
:1024200099858832910569F157C1A9E3B0E0E9E3E4
:10243000F0E08281482F8A81282F30E081E090E00F
:10244000022E02C0880F991F0A94E2F7842B12967D
:102450008C93129741C1A6E3B0E0E6E3F0E08281FD
:10246000482F8A81282F30E081E090E0022E02C0C0
:10247000880F991F0A94E2F7842B12968C93129777
:102480002BC1A3E3B0E0E3E3F0E08281482F8A812F
:10249000282F30E081E090E0022E02C0880F991FC3
:1024A0000A94E2F7842B12968C93129715C1A0E33D
:1024B000B0E0E0E3F0E08281482F8A81282F30E00D
:1024C00081E090E0022E02C0880F991F0A94E2F783
:1024D000842B12968C931297FFC08B81882309F06E
:1024E0007EC08981282F30E03F832E838E819F819B
:1024F0008C30910509F445C02E813F812D30310586
:102500003CF48E819F818530910509F451C0E4C06F
:102510002E813F812132310531F08E819F818832B9
:102520009105C1F0D9C0A6E3B0E0E6E3F0E0828116
:10253000482F8A81282F30E081E090E0022E02C0EF
:10254000880F991F0A94E2F78095842312968C9342
:102550001297C2C0A3E3B0E0E3E3F0E08281482F2A
:102560008A81282F30E081E090E0022E02C0880F9F
:10257000991F0A94E2F78095842312968C93129700
:10258000ABC0A9E3B0E0E9E3F0E08281482F8A81A3
:10259000282F30E081E090E0022E02C0880F991FC2
:1025A0000A94E2F78095842312968C93129794C034
:1025B000A0E3B0E0E0E3F0E08281482F8A81282F99
:1025C00030E081E090E0022E02C0880F991F0A944B
:1025D000E2F78095842312968C9312977DC08B81AD
:1025E000823009F079C08981282F30E03D832C8327
:1025F0008C819D818C30910509F443C02C813D81F3
:102600002D3031053CF48C819D818530910509F494
:102610004EC062C02C813D812132310531F08C8168
:102620009D8188329105B9F057C0A6E3B0E0E6E39A
:10263000F0E08281482F8A81282F30E081E090E00D
:10264000022E02C0880F991F0A94E2F7842712967F
:102650008C93129741C0A3E3B0E0E3E3F0E0828102
:10266000482F8A81282F30E081E090E0022E02C0BE
:10267000880F991F0A94E2F7842712968C93129779
:102680002BC0A9E3B0E0E9E3F0E08281482F8A8122
:10269000282F30E081E090E0022E02C0880F991FC1
:1026A0000A94E2F7842712968C93129715C0A0E340
:1026B000B0E0E0E3F0E08281482F8A81282F30E00B
:1026C00081E090E0022E02C0880F991F0A94E2F781
:1026D000842712968C93129729960FB6F894DEBF32
:1026E0000FBECDBFCF91DF910895DF93CF9300D080
:1026F00000D00F92CDB7DEB78A836B838B81883091
:1027000008F068C08A81282F30E03D832C834C81FB
:102710005D814C305105B9F08C819D818D309105E2
:102720003CF42C813D812530310509F442C052C072
:102730004C815D8141325105C1F08C819D8188328F
:10274000910529F147C0E9E3F0E08081282F30E0CE
:102750008B81882F90E0A90102C0559547958A95F5
:10276000E2F7CA018170898335C0E6E3F0E0808139
:10277000282F30E08B81882F90E0A90102C0559569
:1027800047958A95E2F7CA018170898323C0E3E304
:10279000F0E08081282F30E08B81882F90E0A90124
:1027A00002C0559547958A95E2F7CA0181708983E1
:1027B00011C0E0E3F0E08081282F30E08B81882F8A
:1027C00090E0A90102C0559547958A95E2F7CA01A4
:1027D0008170898389810F900F900F900F900F90D7
:1027E000CF91DF910895DF93CF93CDB7DEB72A97CE
:1027F0000FB6F894DEBF0FBECDBF89836A8389818F
:10280000282F30E03A87298789859A858630910577
:1028100069F029853A852730310509F462C0898538
:102820009A858530910509F4B7C0D5C08A81282FD3
:1028300030E038872F838F8198858130910521F191
:102840002F813885223031052CF48F8198850097AF
:1028500061F0C1C02F8138852230310521F18F818F
:1028600098858330910571F1B6C0A5E5B0E0E5E546
:10287000F0E080818D7F8C93A5E5B0E0E5E5F0E0A8
:1028800080818E7F8C93A7C0A5E5B0E0E5E5F0E000
:1028900080818D7F8C93A5E5B0E0E5E5F0E0808157
:1028A00081608C9398C0A5E5B0E0E5E5F0E080811B
:1028B00082608C93A5E5B0E0E5E5F0E08081816081
:1028C0008C9389C0A5E5B0E0E5E5F0E08081826009
:1028D0008C93A5E5B0E0E5E5F0E080818E7F8C93F8
:1028E0007AC08A81282F30E03E832D838D819E819E
:1028F0008130910521F12D813E81223031052CF46A
:102900008D819E81009761F066C02D813E812230CD
:10291000310521F18D819E818330910571F15BC07C
:10292000A5E5B0E0E5E5F0E08081877F8C93A5E543
:10293000B0E0E5E5F0E080818B7F8C934CC0A5E5AD
:10294000B0E0E5E5F0E08081877F8C93A5E5B0E01D
:10295000E5E5F0E0808184608C933DC0A5E5B0E0C2
:10296000E5E5F0E0808188608C93A5E5B0E0E5E5E1
:10297000F0E0808184608C932EC0A5E5B0E0E5E5B1
:10298000F0E0808188608C93A5E5B0E0E5E5F0E0BB
:1029900080818B7F8C931FC08A81282F30E03C83FD
:1029A0002B838B819C818230910531F02B813C817E
:1029B0002330310549F00FC0A5E5B0E0E5E5F0E0D2
:1029C000808180648C9307C0A5E5B0E0E5E5F0E088
:1029D00080818F7B8C932A960FB6F894DEBF0FBE52
:1029E000CDBFCF91DF910895DF93CF930F92CDB7F5
:1029F000DEB7898389818530B0F08981883098F489
:102A0000ABE5B0E0EBE5F0E08081482F8981282F2D
:102A100030E081E090E0022E02C0880F991F0A94F6
:102A2000E2F7842B8C930F90CF91DF910895DF9381
:102A3000CF930F92CDB7DEB7898389818530B8F007
:102A400089818830A0F4ABE5B0E0EBE5F0E080816F
:102A5000482F8981282F30E081E090E0022E02C0CB
:102A6000880F991F0A94E2F7809584238C930F9026
:102A7000CF91DF910895DF93CF9300D000D00F92D4
:102A8000CDB7DEB79A8389836B838B81282F30E0A3
:102A90003D832C838C819D818630910559F02C815A
:102AA0003D812730310569F08C819D81853091050C
:102AB00079F014C089819A8190938901809388016B
:102AC0000DC089819A8190938B0180938A0106C001
:102AD00089819A8190938D0180938C010F900F9042
:102AE0000F900F900F90CF91DF9108951F920F924A
:102AF0000FB60F9211242F933F934F935F936F93D1
:102B00007F938F939F93AF93BF93EF93FF93DF9345
:102B1000CF93CDB7DEB7809188019091890100975E
:102B200029F0E0918801F09189010995CF91DF9119
:102B3000FF91EF91BF91AF919F918F917F916F9195
:102B40005F914F913F912F910F900FBE0F901F906B
:102B500018951F920F920FB60F9211242F933F9347
:102B60004F935F936F937F938F939F93AF93BF9395
:102B7000EF93FF93DF93CF93CDB7DEB780918A01B8
:102B800090918B01009729F0E0918A01F0918B01DF
:102B90000995CF91DF91FF91EF91BF91AF919F91F7
:102BA0008F917F916F915F914F913F912F910F90F6
:102BB0000FBE0F901F9018951F920F920FB60F9295
:102BC00011242F933F934F935F936F937F938F9332
:102BD0009F93AF93BF93EF93FF93DF93CF93CDB7C3
:102BE000DEB780918C0190918D01009729F0E091E2
:102BF0008C01F0918D010995CF91DF91FF91EF91BB
:102C0000BF91AF919F918F917F916F915F914F9104
:102C10003F912F910F900FBE0F901F901895DF934B
:102C2000CF93CDB7DEB7AFE5B0E0EFE5F0E0808160
:102C300080688C93CF91DF910895DF93CF93CDB7C8
:102C4000DEB7AFE5B0E0EFE5F0E080818F778C9301
:102C5000CF91DF910895DF93CF93CDB7DEB72A9759
:102C60000FB6F894DEBF0FBECDBF89836A834B8356
:102C70002C838981833008F0A5C28A81843008F0D2
:102C8000A1C28B81883008F09DC28C81843008F00D
:102C900099C28981282F30E03A87298789859A85CA
:102CA000009739F029853A852130310509F471C042
:102CB00089C28A81282F30E038872F838F819885B9
:102CC0008130910521F12F813885223031052CF496
:102CD0008F819885009761F046C02F81388522301A
:102CE000310521F18F8198858330910571F13BC0C9
:102CF000A3E5B0E0E3E5F0E08081877F8C93A3E576
:102D0000B0E0E3E5F0E080818F7B8C932CC0A3E5FD
:102D1000B0E0E3E5F0E0808188608C93A3E5B0E06B
:102D2000E3E5F0E080818F7B8C931DC0A3E5B0E0EC
:102D3000E3E5F0E0808188608C93A3E5B0E0E3E513
:102D4000F0E0808180648C930EC0A3E5B0E0E3E501
:102D5000F0E08081877F8C93A3E5B0E0E3E5F0E0CD
:102D6000808180648C93A3E5B0E0E3E5F0E08081AE
:102D7000282F2F7C8C81882F90E082959295907FD0
:102D80009827807F9827822B8C938B8180938E014C
:102D900019C28A81282F30E03E832D838D819E8148
:102DA0008730910509F424C12D813E8128303105F9
:102DB0004CF58D819E818330910509F4A5C02D814C
:102DC0003E81243031058CF48D819E8181309105C6
:102DD00009F460C02D813E81223031050CF077C0AE
:102DE0008D819E810097C9F1EAC12D813E812530F8
:102DF000310509F4C3C08D819E81863091050CF0A8
:102E0000DAC087C12D813E812B30310509F464C1C0
:102E10008D819E818C3091056CF42D813E8129300D
:102E2000310509F41FC18D819E818A3091050CF016
:102E300036C1FBC02D813E812E30310509F486C19B
:102E40008D819E818F30910509F49DC12D813E8138
:102E50002C30310509F475C0B2C1AEE4B0E0EEE447
:102E6000F0E080818F7E8C93AEE4B0E0EEE4F0E0A1
:102E70008081877F8C93AFE4B0E0EFE4F0E0808165
:102E80008D7F8C93AFE4B0E0EFE4F0E080818E7F43
:102E90008C9395C1AEE4B0E0EEE4F0E080818F7EEB
:102EA0008C93AEE4B0E0EEE4F0E08081877F8C9319
:102EB000AFE4B0E0EFE4F0E080818D7F8C93AFE48D
:102EC000B0E0EFE4F0E0808181608C9378C1AEE403
:102ED000B0E0EEE4F0E080818F7E8C93AEE4B0E071
:102EE000EEE4F0E08081877F8C93AFE4B0E0EFE424
:102EF000F0E0808182608C93AFE4B0E0EFE4F0E03A
:102F000080818E7F8C935BC1AEE4B0E0EEE4F0E0B4
:102F100080818F7E8C93AEE4B0E0EEE4F0E08081BF
:102F2000877F8C93AFE4B0E0EFE4F0E080818260D3
:102F30008C93AFE4B0E0EFE4F0E0808181608C93AB
:102F40003EC1AEE4B0E0EEE4F0E080818F7E8C9391
:102F5000AEE4B0E0EEE4F0E0808188608C93AFE412
:102F6000B0E0EFE4F0E080818D7F8C93AFE4B0E0DF
:102F7000EFE4F0E080818E7F8C9321C1AEE4B0E07D
:102F8000EEE4F0E080818F7E8C93AEE4B0E0EEE47E
:102F9000F0E0808188608C93AFE4B0E0EFE4F0E093
:102FA00080818D7F8C93AFE4B0E0EFE4F0E080812E
:102FB00081608C9304C1AEE4B0E0EEE4F0E0808187
:102FC0008F7E8C93AEE4B0E0EEE4F0E08081886028
:102FD0008C93AFE4B0E0EFE4F0E0808182608C930A
:102FE000AFE4B0E0EFE4F0E080818E7F8C93E7C047
:102FF000AEE4B0E0EEE4F0E080818F7E8C93AEE44E
:10300000B0E0EEE4F0E0808188608C93AFE4B0E063
:10301000EFE4F0E0808182608C93AFE4B0E0EFE415
:10302000F0E0808181608C93CAC0AEE4B0E0EEE451
:10303000F0E0808180618C93AEE4B0E0EEE4F0E0FB
:103040008081877F8C93AFE4B0E0EFE4F0E0808193
:103050008D7F8C93AFE4B0E0EFE4F0E080818E7F71
:103060008C93ADC0AEE4B0E0EEE4F0E0808180612E
:103070008C93AEE4B0E0EEE4F0E08081877F8C9347
:10308000AFE4B0E0EFE4F0E080818D7F8C93AFE4BB
:10309000B0E0EFE4F0E0808181608C9390C0AEE41A
:1030A000B0E0EEE4F0E0808180618C93AEE4B0E0CB
:1030B000EEE4F0E08081877F8C93AFE4B0E0EFE452
:1030C000F0E0808182608C93AFE4B0E0EFE4F0E068
:1030D00080818E7F8C9373C0AEE4B0E0EEE4F0E0CC
:1030E000808180618C93AEE4B0E0EEE4F0E080811A
:1030F000877F8C93AFE4B0E0EFE4F0E08081826002
:103100008C93AFE4B0E0EFE4F0E0808181608C93D9
:1031100056C0AEE4B0E0EEE4F0E0808180618C93D4
:10312000AEE4B0E0EEE4F0E0808188608C93AFE440
:10313000B0E0EFE4F0E080818D7F8C93AFE4B0E00D
:10314000EFE4F0E080818E7F8C9339C0AEE4B0E094
:10315000EEE4F0E0808180618C93AEE4B0E0EEE4D8
:10316000F0E0808188608C93AFE4B0E0EFE4F0E0C1
:10317000808182608C93AFE4B0E0EFE4F0E0808186
:103180008E7F8C931CC0AEE4B0E0EEE4F0E0808172
:1031900080618C93AEE4B0E0EEE4F0E08081886082
:1031A0008C93AFE4B0E0EFE4F0E0808182608C9338
:1031B000AFE4B0E0EFE4F0E0808181608C938B813C
:1031C00080938F012A960FB6F894DEBF0FBECDBF55
:1031D000CF91DF910895DF93CF930F92CDB7DEB7F4
:1031E0008983A3E5B0E0E3E5F0E0808180688C931B
:1031F0000F90CF91DF910895DF93CF930F92CDB7CA
:10320000DEB789838981883098F4A9E5B0E0E9E5E3
:10321000F0E08081482F8981282F30E081E090E024
:10322000022E02C0880F991F0A94E2F7842B8C9318
:103230000F90CF91DF910895DF93CF930F92CDB789
:10324000DEB7898389818830A0F4A9E5B0E0E9E59B
:10325000F0E08081482F8981282F30E081E090E0E4
:10326000022E02C0880F991F0A94E2F780958423EA
:103270008C930F90CF91DF910895DF93CF9300D07F
:1032800000D00F92CDB7DEB79A8389836B83898193
:103290009A810097E1F08B81282F30E03D832C83C9
:1032A0008C819D81009731F02C813D812130310549
:1032B00041F00DC089819A8190939401809393018C
:1032C00006C089819A8190939601809395010F9011
:1032D0000F900F900F900F90CF91DF910895DF9393
:1032E000CF9300D00F92CDB7DEB789838981282F85
:1032F00030E03B832A838A819B81009731F02A81C9
:103300003B812130310569F017C0A3E5B0E0E3E56A
:10331000F0E08081982F987F80918E01892B8C938B
:103320000BC0AEE4B0E0EEE4F0E08081982F987F2F
:1033300080918F01892B8C930F900F900F90CF91DC
:10334000DF910895DF93CF9300D00F92CDB7DEB712
:1033500089838981282F30E03B832A838A819B815E
:10336000009731F02A813B812130310549F00FC0AF
:10337000A3E5B0E0E3E5F0E08081887F8C9307C0AF
:10338000AEE4B0E0EEE4F0E08081887F8C930F90B3
:103390000F900F90CF91DF910895DF93CF9300D0DE
:1033A00000D00F92CDB7DEB789837B836A83898192
:1033B000282F30E03D832C838C819D81009731F054
:1033C0002C813D812130310531F00BC0E2E5F0E088
:1033D0008A81808306C0ECE4F0E08A819B8191833E
:1033E00080830F900F900F900F900F90CF91DF91EF
:1033F0000895DF93CF9300D000D00F92CDB7DEB702
:103400008B831A8219828B81282F30E03D832C8395
:103410008C819D81009731F02C813D8121303105D7
:1034200049F00EC0E2E5F0E08081882F90E09A83B9
:10343000898306C0ECE4F0E0808191819A838983DE
:1034400089819A810F900F900F900F900F90CF91DC
:10345000DF910895DF93CF9300D00F92CDB7DEB701
:1034600089838981282F30E03B832A838A819B814D
:10347000009731F02A813B812130310529F008C0C5
:10348000E2E5F0E0108204C0ECE4F0E0118210828A
:103490000F900F900F90CF91DF910895DF93CF930E
:1034A00000D00F92CDB7DEB789837B836A83898191
:1034B000882F90E0009721F4ECE5F0E08A8180838A
:1034C0000F900F900F90CF91DF910895EF92FF92A0
:1034D0000F931F93DF93CF93CDB7DEB761970FB6EE
:1034E000F894DEBF0FBECDBF8B874C875D876E879C
:1034F0007F878B85882F90E0009709F0B3C080917B
:103500008E01282F30E0398B288B88899989833068
:10351000910529F128893989243031055CF488899D
:1035200099898130910589F02889398922303105BE
:1035300089F023C08889998984309105A9F0288968
:10354000398925303105A9F018C081E090E09A83CF
:10355000898313C088E090E09A8389830EC080E459
:1035600090E09A83898309C080E091E09A838983FF
:1035700004C080E094E09A83898389819A81CC0198
:10358000A0E0B0E0BC01CD010E94A904DC01CB01A8
:10359000BC01CD0120E034E244EF5AE40E9419035B
:1035A000DC01CB018F839887A987BA876F817885E3
:1035B00089859A8520E030E040E853E40E941F02AC
:1035C000DC01CB018B839C83AD83BE836C857D85C1
:1035D0008E859F850E94A904DC01CB01BC01CD0131
:1035E00020E030E04AE754E40E941903DC01CB01FB
:1035F000BC01CD012B813C814D815E810E9419036C
:10360000DC01CB01BC01CD010E944900DC01CB01F2
:1036100090939101809390018C859D85AE85BF85A7
:1036200028EE33E040E050E0BC01CD010E94AD1D2A
:10363000DA01C9017C018D016B817C818D819E81C4
:103640000E9449009B01AC01C801B7010E94AD1D59
:10365000DC01CB01819580939201E2E5F0E080915D
:103660009201808361960FB6F894DEBF0FBECDBF86
:10367000CF91DF911F910F91FF90EF9008951F92CE
:103680000F920FB60F921124DF93CF93CDB7DEB711
:10369000CF91DF910F900FBE0F901F9018951F9242
:1036A0000F920FB60F9211242F933F934F935F9376
:1036B0006F937F938F939F93AF93BF93EF93FF93FA
:1036C000DF93CF93CDB7DEB78091970190919801AA
:1036D0000196909398018093970180919001909129
:1036E00091019C012F5F3F4F80919701909198012C
:1036F00028173907A1F4E2E5F0E080919201808378
:1037000010929801109297018091930190919401E9
:10371000009729F0E0919301F09194010995CF91E0
:10372000DF91FF91EF91BF91AF919F918F917F9129
:103730006F915F914F913F912F910F900FBE0F901E
:103740001F901895DF93CF93CDB7DEB7E8970FB6EC
:10375000F894DEBF0FBECDBF0E94170718A61FA2A8
:1037600081E263E04AE50E94F90F85E062E044E609
:103770000E94F90F85E060E04AE50E94F90F85E0BC
:1037800061E04AE50E94F90F80E090E0A8E4B2E42D
:103790008BA39CA3ADA3BEA36BA17CA18DA19EA175
:1037A00020E030E04AEF54E40E941F02DC01CB012C
:1037B0008F8F98A3A9A3BAA36F8D78A189A19AA18D
:1037C00020E030E040E85FE30E94250488232CF4E9
:1037D00081E090E09E8F8D8F3FC06F8D78A189A191
:1037E0009AA120E03FEF4FE757E40E94C503181667
:1037F0004CF56BA17CA18DA19EA120E030E040E2C0
:1038000051E40E941F02DC01CB01BC01CD010E94EA
:103810004900DC01CB019E8F8D8F0FC088EC90E0BA
:103820009C8F8B8F8B8D9C8D0197F1F79C8F8B8F4D
:103830008D8D9E8D01979E8F8D8F8D8D9E8D009786
:1038400069F714C06F8D78A189A19AA10E944900DF
:10385000DC01CB019E8F8D8F8D8D9E8D9A8F898FF0
:10386000898D9A8D0197F1F79A8F898F80E063E0B7
:1038700044E022E00E942B1680E00E946F1981E054
:1038800060E042E020E00E942B1686E061E00E94AA
:10389000F31382E79DE166E00E943B1586E00E94FB
:1038A000F4140E940F160E946A0C85E060E041E06B
:1038B0000E94DF1180E090E0A0E7B1E48D8B9E8B49
:1038C000AF8BB88F6D897E898F89988D2BEA3AEA04
:1038D0004AE250E40E941F02DC01CB01898B9A8BE3
:1038E000AB8BBC8B69897A898B899C8920E030E01D
:1038F00040E85FE30E94250488231CF481E0888B64
:1039000091C069897A898B899C8920E030E04FE7F2
:1039100053E40E94C50318160CF07BC06D897E89A4
:103920008F89988D20E030E04AE754E40E94190323
:10393000DC01CB018C879D87AE87BF876C857D8539
:103940008E859F8520E030E04AEF54E40E941F02FC
:10395000DC01CB0188879987AA87BB876885798531
:103960008A859B8520E030E040E85FE30E942504E3
:1039700088232CF481E090E09F838E833FC068858C
:1039800079858A859B8520E03FEF4FE757E40E94C9
:10399000C50318164CF56C857D858E859F8520E0C6
:1039A00030E040E251E40E941F02DC01CB01BC0187
:1039B000CD010E944900DC01CB019F838E830FC0A3
:1039C00088EC90E09D838C838C819D810197F1F739
:1039D0009D838C838E819F8101979F838E838E81AF
:1039E0009F81009769F724C0688579858A859B85C2
:1039F0000E944900DC01CB019F838E838E819F81D1
:103A00009B838A838A819B810197F1F79B838A83B9
:103A10000FC069897A898B899C890E944900DC01E1
:103A2000CB01888B8889898389818A95F1F789837D
:103A300085E060E040E00E94DF1180919901909163
:103A40009A012AE330E0B9010E949A1DCB0198A7A0
:103A50008FA380E060E00E941A0D80E690E00E9453
:103A6000F20C81E062E00E941A0D80E790E00E9473
:103A7000F20C8FA198A59E01275D3F4FB9014AE046
:103A800050E00E941A1ECE0189960E94F20C8AE72D
:103A900090E00E94F20C81E06DE00E941A0D8CE72C
:103AA00090E00E94F20C81E061E00E941A0D8FA16B
:103AB00098A58B3091055CF485E061E041E00E94BF
:103AC000DF1180E060E170E00E944E1AEECE85E0EA
:103AD00061E040E00E94DF1180E06FE170E00E9451
:103AE0004E1AE3CEDF93CF93CDB7DEB780919B0123
:103AF00090919C01009751F481E00E946F1981E040
:103B000090E090939C0180939B0111C081E00E9402
:103B1000A21981E00E94F91990939A01809399016A
:103B200081E00E942A1A10929C0110929B01CF9171
:103B3000DF91089597FB092E07260AD077FD04D060
:103B40002ED006D000201AF4709561957F4F08950D
:103B5000F6F7909581959F4F0895A1E21A2EAA1B22
:103B6000BB1BFD010DC0AA1FBB1FEE1FFF1FA2172D
:103B7000B307E407F50720F0A21BB30BE40BF50B2A
:103B8000661F771F881F991F1A9469F760957095B3
:103B9000809590959B01AC01BD01CF010895AA1BB2
:103BA000BB1B51E107C0AA1FBB1FA617B70710F028
:103BB000A61BB70B881F991F5A95A9F7809590955A
:103BC000BC01CD0108952F923F924F925F926F9268
:103BD0007F928F929F92AF92BF92CF92DF92EF929D
:103BE000FF920F931F93CF93DF93CDB7DEB7CA1B1E
:103BF000DB0B0FB6F894DEBF0FBECDBF09942A8849
:103C0000398848885F846E847D848C849B84AA84F0
:103C1000B984C884DF80EE80FD800C811B81AA817D
:103C2000B981CE0FD11D0FB6F894DEBF0FBECDBF48
:103C3000ED010895FB019F01E8944230C4F0453244
:103C4000B4F44A3029F497FB1EF4909581959F4F68
:103C5000642F77270E94CF1D805D8A330CF0895D29
:103C60008193CB010097A1F716F45DE25193108286
:103C7000C9010C943B1EDC01FC01672F7191772375
:103C8000E1F7329704C07C916D9370836291AE1717
:0A3C9000BF07C8F30895F894FFCFB2
:103C9A0044697374616E63652053656E736F720055
:103CAA0044697374616E63653D002000636D0000B2
:103CBA0000000000000000000102020303030304E5
:103CCA0004040404040404050505050505050505A1
:103CDA000505050505050506060606060606060681
:103CEA00060606060606060606060606060606066A
:103CFA000606060606060607070707070707070751
:103D0A000707070707070707070707070707070739
:103D1A000707070707070707070707070707070729
:103D2A000707070707070707070707070707070719
:103D3A000707070707070708080808080808080800
:103D4A0008080808080808080808080808080808E9
:103D5A0008080808080808080808080808080808D9
:103D6A0008080808080808080808080808080808C9
:103D7A0008080808080808080808080808080808B9
:103D8A0008080808080808080808080808080808A9
:103D9A000808080808080808080808080808080899
:103DAA000808080808080808080808080808080889
:083DBA000808080808080800C9
:00000001FF
