:100000000C942A000C9434000C9434000C943400AA
:100010000C9434000C9434000C9434000C94340090
:100020000C9434000C9434000C9434000C94340080
:100030000C9434000C9434000C9434000C94340070
:100040000C9434000C9434000C9434000C94340060
:100050000C94340011241FBECFE5D8E0DEBFCDBF25
:100060000E94F7040C9470050C940000DF93CF936A
:1000700000D000D0CDB7DEB789836A838981282F6D
:1000800030E03C832B838B819C818C309105B1F0D7
:100090002B813C812D30310534F48B819C8185305E
:1000A0009105D9F01EC02B813C812132310559F0D8
:1000B0008B819C818832910559F013C0E9E3F0E00F
:1000C0008A8181830EC0E6E3F0E08A81818309C0E2
:1000D000E3E3F0E08A81818304C0E0E3F0E08A8119
:1000E00081830F900F900F900F90CF91DF91089523
:1000F000DF93CF9300D000D0CDB7DEB789836A837A
:100100008981282F30E03C832B838B819C818C302C
:100110009105B1F02B813C812D30310534F48B8178
:100120009C8185309105D9F01EC02B813C81213204
:10013000310559F08B819C818832910559F013C0AB
:10014000E9E3F0E08A8182830EC0E6E3F0E08A8191
:10015000828309C0E3E3F0E08A81828304C0E0E3A4
:10016000F0E08A8182830F900F900F900F90CF91D3
:10017000DF910895DF93CF9300D000D0CDB7DEB7E5
:100180008A8319828A81282F30E03C832B838B81DC
:100190009C818C309105B1F02B813C812D30310553
:1001A00034F48B819C8185309105D9F01EC02B8160
:1001B0003C812132310559F08B819C818832910537
:1001C00059F013C0E9E3F0E0808189830EC0E6E3D3
:1001D000F0E08081898309C0E3E3F0E080818983D6
:1001E00004C0E0E3F0E08081898389810F900F9063
:1001F0000F900F90CF91DF910895DF93CF93CDB7FC
:10020000DEB729970FB6F894DEBF0FBECDBF898346
:100210006A834B838A81883008F0CCC18B818A3510
:1002200009F079C08981282F30E0398728878885AF
:1002300099858C309105B9F0288539852D303105A7
:100240003CF4888599858530910509F44EC0B2C18A
:100250002885398521323105E1F0888599858832F4
:10026000910569F1A7C1A9E3B0E0E9E3F0E081817C
:10027000482F8A81282F30E081E090E0022E02C0D2
:10028000880F991F0A94E2F7842B11968C9311978B
:1002900091C1A6E3B0E0E6E3F0E08181482F8A81D6
:1002A000282F30E081E090E0022E02C0880F991FD5
:1002B0000A94E2F7842B11968C9311977BC1A3E3E8
:1002C000B0E0E3E3F0E08181482F8A81282F30E01D
:1002D00081E090E0022E02C0880F991F0A94E2F795
:1002E000842B11968C93119765C1A0E3B0E0E0E3F5
:1002F000F0E08181482F8A81282F30E081E090E072
:10030000022E02C0880F991F0A94E2F7842B1196DF
:100310008C9311974FC18B81843609F07EC08981FF
:10032000282F30E03F832E838E819F818C30910572
:1003300009F445C02E813F812D3031053CF48E817A
:100340009F818530910509F451C034C12E813F81D0
:100350002132310531F08E819F8188329105C1F0C3
:1003600029C1A6E3B0E0E6E3F0E08181482F8A816D
:10037000282F30E081E090E0022E02C0880F991F04
:100380000A94E2F78095842311968C93119712C1F9
:10039000A3E3B0E0E3E3F0E08181482F8A81282FD6
:1003A00030E081E090E0022E02C0880F991F0A948D
:1003B000E2F78095842311968C931197FBC0A9E3F3
:1003C000B0E0E9E3F0E08181482F8A81282F30E016
:1003D00081E090E0022E02C0880F991F0A94E2F794
:1003E0008095842311968C931197E4C0A0E3B0E02C
:1003F000E0E3F0E08181482F8A81282F30E081E01E
:1004000090E0022E02C0880F991F0A94E2F78095AF
:10041000842311968C931197CDC08B81883C09F071
:10042000C9C08981282F30E03D832C838C819D8138
:100430008C30910509F46BC02C813D812D30310544
:100440003CF48C819D818530910509F48AC0B2C04D
:100450002C813D812132310531F08C819D818832A2
:10046000910559F1A7C0A6E3B0E0E6E3F0E0818191
:10047000482F8A81282F30E081E090E002C0880F69
:10048000991F2A95E2F78095842311968C93A9E30E
:10049000B0E0E9E3F0E08281482F8A81282F30E044
:1004A00081E090E0022E02C0880F991F0A94E2F7C3
:1004B000842B12968C9312977DC0A3E3B0E0E3E304
:1004C000F0E08181482F8A81282F30E081E090E0A0
:1004D00002C0880F991F2A95E2F780958423119610
:1004E0008C93A6E3B0E0E6E3F0E08281482F8A81B6
:1004F000282F30E081E090E0022E02C0880F991F83
:100500000A94E2F7842B12968C93129753C0A9E3B6
:10051000B0E0E9E3F0E08181482F8A81282F30E0C4
:1005200081E090E002C0880F991F2A95E2F780953C
:10053000842311968C93A3E3B0E0E3E3F0E082819F
:10054000482F8A81282F30E081E090E0022E02C0FF
:10055000880F991F0A94E2F7842B12968C931297B6
:1005600029C0A0E3B0E0E0E3F0E08181482F8A8178
:10057000282F30E081E090E002C0880F991F2A9573
:10058000E2F78095842311968C93A0E3B0E0E0E33A
:10059000F0E08281482F8A81282F30E081E090E0CE
:1005A000022E02C0880F991F0A94E2F7842B12963C
:1005B0008C93129729960FB6F894DEBF0FBECDBF6D
:1005C000CF91DF910895DF93CF93CDB7DEB7299711
:1005D0000FB6F894DEBF0FBECDBF89836A834B830D
:1005E0008A81883008F07CC18B81813009F079C024
:1005F0008981282F30E039872887888599858C3034
:100600009105B9F0288539852D3031053CF4888570
:1006100099858530910509F44EC062C128853985D8
:1006200021323105E1F0888599858832910569F19B
:1006300057C1A9E3B0E0E9E3F0E08281482F8A8165
:10064000282F30E081E090E0022E02C0880F991F31
:100650000A94E2F7842B12968C93129741C1A6E379
:10066000B0E0E6E3F0E08281482F8A81282F30E075
:1006700081E090E0022E02C0880F991F0A94E2F7F1
:10068000842B12968C9312972BC1A3E3B0E0E3E383
:10069000F0E08281482F8A81282F30E081E090E0CD
:1006A000022E02C0880F991F0A94E2F7842B12963B
:1006B0008C93129715C1A0E3B0E0E0E3F0E08281F3
:1006C000482F8A81282F30E081E090E0022E02C07E
:1006D000880F991F0A94E2F7842B12968C93129735
:1006E000FFC08B81882309F07EC08981282F30E0EC
:1006F0003F832E838E819F818C30910509F445C004
:100700002E813F812D3031053CF48E819F818530D3
:10071000910509F451C0E4C02E813F812132310599
:1007200031F08E819F8188329105C1F0D9C0A6E356
:10073000B0E0E6E3F0E08281482F8A81282F30E0A4
:1007400081E090E0022E02C0880F991F0A94E2F720
:100750008095842312968C931297C2C0A3E3B0E0D5
:10076000E3E3F0E08281482F8A81282F30E081E0A6
:1007700090E0022E02C0880F991F0A94E2F780953C
:10078000842312968C931297ABC0A9E3B0E0E9E3FF
:10079000F0E08281482F8A81282F30E081E090E0CC
:1007A000022E02C0880F991F0A94E2F780958423D5
:1007B00012968C93129794C0A0E3B0E0E0E3F0E0CF
:1007C0008281482F8A81282F30E081E090E0022E3C
:1007D00002C0880F991F0A94E2F78095842312962D
:1007E0008C9312977DC08B81823009F079C089810A
:1007F000282F30E03D832C838C819D818C309105A6
:1008000009F443C02C813D812D3031053CF48C81AD
:100810009D818530910509F44EC062C02C813D81D7
:100820002132310531F08C819D8188329105B9F0FA
:1008300057C0A6E3B0E0E6E3F0E08281482F8A816A
:10084000282F30E081E090E0022E02C0880F991F2F
:100850000A94E2F7842712968C93129741C0A3E37F
:10086000B0E0E3E3F0E08281482F8A81282F30E076
:1008700081E090E0022E02C0880F991F0A94E2F7EF
:10088000842712968C9312972BC0A9E3B0E0E9E37A
:10089000F0E08281482F8A81282F30E081E090E0CB
:1008A000022E02C0880F991F0A94E2F7842712963D
:1008B0008C93129715C0A0E3B0E0E0E3F0E08281F2
:1008C000482F8A81282F30E081E090E0022E02C07C
:1008D000880F991F0A94E2F7842712968C93129737
:1008E00029960FB6F894DEBF0FBECDBFCF91DF9132
:1008F0000895DF93CF9300D000D00F92CDB7DEB72D
:100900008A836B838B81883008F068C08A81282FA6
:1009100030E03D832C834C815D814C305105B9F032
:100920008C819D818D3091053CF42C813D81253059
:10093000310509F442C052C04C815D8141325105FC
:10094000C1F08C819D818832910529F147C0E9E38E
:10095000F0E08081282F30E08B81882F90E0A90182
:1009600002C0559547958A95E2F7CA01817089833F
:1009700035C0E6E3F0E08081282F30E08B81882FBE
:1009800090E0A90102C0559547958A95E2F7CA0102
:100990008170898323C0E3E3F0E08081282F30E079
:1009A0008B81882F90E0A90102C0559547958A95C3
:1009B000E2F7CA018170898311C0E0E3F0E0808131
:1009C000282F30E08B81882F90E0A90102C0559537
:1009D00047958A95E2F7CA018170898389810F90D2
:1009E0000F900F900F900F90CF91DF910895DF93AC
:1009F000CF93CDB7DEB785E060E048EC0E94FD0004
:100A000085E061E048EC0E94FD0085E062E04AE597
:100A10000E94FD0085E063E04AE50E94FD0085E05C
:100A200064E04AE50E94FD0085E065E04AE50E9439
:100A3000FD0085E060E00E9479048823D9F485E018
:100A400061E00E9479048130A9F485E062E040E031
:100A50000E94E30285E064E040E00E94E30285E05A
:100A600063E041E00E94E30285E065E041E00E942E
:100A7000E302DFCF85E061E00E9479048823D9F4A6
:100A800085E060E00E9479048130A9F485E063E0AC
:100A900040E00E94E30285E065E040E00E94E3025E
:100AA00085E062E041E00E94E30285E064E041E02D
:100AB0000E94E302BECF85E063E040E00E94E302D3
:100AC00085E065E040E00E94E30285E062E040E00E
:100AD0000E94E30285E064E040E00E94E302A9CFC7
:040AE000F894FFCFB8
:00000001FF
