:100000000C942A000C9447000C9447000C94470071
:100010000C9447000C9447000C9447000C94470044
:100020000C9447000C9447000C9447000C94470034
:100030000C9447000C9447000C9447000C94470024
:100040000C9447000C9447000C9447000C94470014
:100050000C94470011241FBECFE5D8E0DEBFCDBF12
:1000600010E0A0E6B0E0E0E7F2E302C005900D92F8
:10007000AE3EB107D9F710E0AEEEB0E001C01D9280
:10008000AE3FB107E1F70E94B9100C9436190C94F9
:100090000000EF92FF920F931F937B018C0120E0F1
:1000A00030E040E05FE40E94F50388238CF0C80153
:1000B000B70120E030E040E05FE40E94C1010E940F
:1000C00055049B01AC01205030404040504806C0D0
:1000D000C801B7010E9455049B01AC01B901CA01D6
:1000E0001F910F91FF90EF900895A0E0B0E0EBE733
:1000F000F0E00C94FF18DC012B01FA019C91923086
:1001000008F439C1EB018881823008F433C194309E
:1001100069F4843009F02FC111969C91119789815F
:10012000981709F428C1A0E7B0E025C1843009F48C
:1001300021C18230A9F4923009F01DC19A01AD01AC
:1001400088E0EA010990AE01E90109929E0181501F
:10015000C1F7E201898111969C918923818308C1AD
:10016000923009F407C112962D903C901397EB0141
:100170008A819B811496AD90BD90CD90DC901797AD
:10018000EC80FD800E811F819101281B390BB90184
:1001900037FF04C066277727621B730B6032710537
:1001A0000CF061C0121613066CF537014801062EDB
:1001B00004C096948794779467940A94D2F721E0C8
:1001C00030E040E050E004C0220F331F441F551FB1
:1001D0006A95D2F721503040404050402E213F21B7
:1001E00040235123211531054105510521F021E01E
:1001F00030E040E050E079018A01E628F72808293C
:1002000019293CC0232BD1F1260E371E350146019A
:10021000062E04C096948794779467940A94D2F734
:1002200021E030E040E050E004C0220F331F441FC3
:10023000551F6A95D2F721503040404050402A2146
:100240003B214C215D21211531054105510521F04E
:1002500021E030E040E050E059016A01A628B728CB
:10026000C828D9280BC0821593052CF01C01AA249C
:10027000BB24650103C0EE24FF24870111969C91E5
:10028000D20111968C91981709F445C0992339F041
:10029000A80197012A193B094C095D0906C0A6016E
:1002A00095012E193F09400B510B57FD08C01182D3
:1002B0003382228224833583468357831DC081E0A5
:1002C00081833382228288279927DC01821B930B4A
:1002D000A40BB50B84839583A683B7830DC0220F2F
:1002E000331F441F551F24833583468357838281E0
:1002F000938101979383828324813581468157813D
:10030000DA01C9010197A109B1098F5F9F4FAF4F72
:10031000BF4328F30BC0918333822282EA0CFB1C7B
:100320000C1D1D1DE482F5820683178383E0808304
:10033000248135814681578157FF1AC0C901AA27F8
:1003400097FDA095BA2F81709070A070B0705695EF
:10035000479537952795822B932BA42BB52B848318
:100360009583A683B7838281938101969383828349
:10037000DF0101C0D201CD01CDB7DEB7E2E10C94BF
:100380001B19A0E2B0E0E7ECF1E00C940B196983D3
:100390007A838B839C832D833E834F835887E9E048
:1003A000EE2EF12CEC0EFD1ECE010196B7010E943F
:1003B0007E058E010F5E1F4FCE010596B8010E948B
:1003C0007E058A8991E089278A8BC701B801AE0131
:1003D000475E5F4F0E9475000E94A904A096E6E068
:1003E0000C942719A0E2B0E0E8EFF1E00C940B19AF
:1003F00069837A838B839C832D833E834F835887C5
:10040000F9E0EF2EF12CEC0EFD1ECE010196B701A6
:100410000E947E058E010F5E1F4FCE010596B8012A
:100420000E947E05C701B801AE01475E5F4F0E9482
:1004300075000E94A904A096E6E00C942719A0E29A
:10044000B0E0E5E2F2E00C94FF1869837A838B83D5
:100450009C832D833E834F835887CE010196BE0136
:10046000675F7F4F0E947E05CE010596BE016F5EDD
:100470007F4F0E947E059985923088F0898982306D
:10048000C8F0943019F4823051F404C0843029F457
:10049000923081F480E790E0C6C0923049F420E0C9
:1004A0009A858A89981321E02A87CE010996BBC0D4
:1004B000823049F420E09A858A89981321E02A8BBA
:1004C000CE014196B0C02D843E844F8458886D88FB
:1004D0007E888F88988CEE24FF248701AA24BB2471
:1004E000650140E050E060E070E0E0E0F0E0C10174
:1004F00081709070892BE9F0E60CF71C081D191D1E
:100500009A01AB012A0D3B1D4C1D5D1D80E090E062
:10051000A0E0B0E0E614F7040805190520F481E036
:1005200090E0A0E0B0E0BA01A901480F591F6A1F8E
:100530007B1FAA0CBB1CCC1CDD1C97FE08C081E0F5
:1005400090E0A0E0B0E0A82AB92ACA2ADB2A3196B6
:10055000E032F10549F0660C771C881C991C569412
:10056000479437942794C3CFFA85EA892B893C892D
:100570008B859C85280F391F2E5F3F4F17C0CA01FE
:1005800081709070892B61F016950795F794E79428
:1005900080E090E0A0E0B0E8E82AF92A0A2B1B2BC3
:1005A00076956795579547952F5F3F4F77FDE7CF36
:1005B0000CC0440F551F661F771F17FD4160EE0CDE
:1005C000FF1C001F111F21503040403090E05907A0
:1005D00090E0690790E4790760F32B8F3C8FDB0193
:1005E000CA018F779070A070B07080349105A1051A
:1005F000B10561F447FD0AC0E114F10401051105DC
:1006000029F0405C5F4F6F4F7F4F40781A8EFE1786
:1006100011F081E08A8F4D8F5E8F6F8F78A383E01A
:10062000898FCE0149960E94A904A096E2E10C941C
:100630001B19A8E1B0E0EFE1F3E00C94071969831E
:100640007A838B839C832D833E834F835887B9E0C5
:10065000EB2EF12CEC0EFD1ECE010196B7010E948F
:100660007E058E010F5E1F4FCE010596B8010E94D8
:100670007E052985223008F47EC03989323010F495
:10068000B8017CC08A859A8989278A87243011F02D
:10069000223031F4231709F06EC060E770E06EC0BD
:1006A000343039F41D861E861F86188A1C861B86E8
:1006B00004C0323021F484E08987B7015FC02B8504
:1006C0003C858B899C89281B390B3C872B87ED84C3
:1006D000FE840F851889AD88BE88CF88D88CEA142F
:1006E000FB040C051D0540F4EE0CFF1C001F111F40
:1006F000215030403C872B8720E030E040E050E044
:1007000080E090E0A0E0B0E460E070E0EA14FB0478
:100710000C051D0540F0282B392B4A2B5B2BEA18C2
:10072000FB080C091D09B695A79597958795EE0CC2
:10073000FF1C001F111F6F5F7F4F6F31710531F775
:10074000DA01C9018F779070A070B0708034910584
:10075000A105B10561F427FD0AC0E114F10401050A
:10076000110529F0205C3F4F4F4F5F4F20782D87B8
:100770003E874F87588BBE01675F7F4FCB010E943A
:10078000A9046896EAE00C942319A8E1B0E0EBEC28
:10079000F3E00C940B1969837A838B839C832D83FC
:1007A0003E834F83588789E0E82EF12CEC0EFD1E26
:1007B000CE010196B7010E947E058E010F5E1F4F8C
:1007C000CE010596B8010E947E058985823040F0F1
:1007D0008989823028F0C701B8010E94F60501C05E
:1007E0008FEF6896E6E00C942719A8E1B0E0EBEFF4
:1007F000F3E00C940B1969837A838B839C832D839C
:100800003E834F83588789E0E82EF12CEC0EFD1EC5
:10081000CE010196B7010E947E058E010F5E1F4F2B
:10082000CE010596B8010E947E058985823040F090
:100830008989823028F0C701B8010E94F60501C0FD
:100840008FEF6896E6E00C942719A8E1B0E0EBE2A0
:10085000F4E00C940B1969837A838B839C832D833A
:100860003E834F83588789E0E82EF12CEC0EFD1E65
:10087000CE010196B7010E947E058E010F5E1F4FCB
:10088000CE010596B8010E947E058985823040F030
:100890008989823028F0C701B8010E94F60501C09D
:1008A00081E06896E6E00C942719ACE0B0E0EBE557
:1008B000F4E00C940F1969837A838B839C83CE01B7
:1008C0000196BE016B5F7F4F0E947E058D81823055
:1008D00061F1823050F1843021F48E81882351F10E
:1008E0002EC02F81388537FD20C06E812F31310514
:1008F0001CF06623F9F023C08EE190E0821B930B7D
:1009000029853A854B855C8504C056954795379572
:1009100027958A95D2F76623B1F05095409530958A
:1009200021953F4F4F4F5F4F0EC020E030E040E039
:1009300050E009C02FEF3FEF4FEF5FE704C020E02A
:1009400030E040E050E8B901CA012C96E2E00C9496
:100950002B19DF92EF92FF920F931F93FC01E4801B
:10096000F58006811781D1808081823048F480E053
:1009700090E0A0E1B0E0E82AF92A0A2B1B2BA5C0E1
:10098000843009F49FC0823021F4EE24FF248701D3
:1009900005C0E114F1040105110519F4E0E0F0E0EF
:1009A00096C0628173819FEF623879070CF05BC05B
:1009B00022E83FEF261B370B2A3131052CF020E0CF
:1009C00030E040E050E02AC0B801A701022E04C088
:1009D00076956795579547950A94D2F781E090E010
:1009E000A0E0B0E004C0880F991FAA1FBB1F2A9582
:1009F000D2F70197A109B1098E219F21A023B1232C
:100A00000097A105B10521F081E090E0A0E0B0E001
:100A10009A01AB01282B392B4A2B5B2BDA01C90138
:100A20008F779070A070B07080349105A105B105EA
:100A300039F427FF09C0205C3F4F4F4F5F4F04C080
:100A4000215C3F4F4F4F5F4FE0E0F0E02030A0E0EF
:100A50003A07A0E04A07A0E45A0710F0E1E0F0E00E
:100A600079018A0127C06038710564F5FB01E158FE
:100A7000FF4FD801C7018F779070A070B07080349D
:100A80009105A105B10539F4E7FE0DC080E490E0C1
:100A9000A0E0B0E004C08FE390E0A0E0B0E0E80E9A
:100AA000F91E0A1F1B1F17FF05C016950795F7941F
:100AB000E794319687E016950795F794E7948A9521
:100AC000D1F705C0EE24FF248701EFEFF0E06E2F91
:100AD000679566276795902F9F77D794DD24D794E5
:100AE0008E2F8695492F462B582F5D29B701CA01B5
:100AF0001F910F91FF90EF90DF900895FC01DB01B3
:100B0000408151812281622F6F7770E0221F22275E
:100B1000221F9381892F880F822B282F30E0991F65
:100B20009927991F11969C93119721153105A9F5C5
:100B3000411551056105710511F482E037C082E865
:100B40009FEF13969C938E9312979A01AB0167E0E7
:100B5000220F331F441F551F6A95D1F783E08C93F2
:100B60000DC0220F331F441F551F12968D919C916B
:100B70001397019713969C938E931297203080E0E1
:100B8000380780E0480780E4580758F314962D93FF
:100B90003D934D935C93179708952F3F310579F45A
:100BA000411551056105710519F484E08C93089590
:100BB00064FF03C081E08C9312C01C9210C02F57B9
:100BC000304013963C932E93129783E08C9387E0EA
:100BD000440F551F661F771F8A95D1F770641496CE
:100BE0004D935D936D937C93179708951F93DC014C
:100BF000FB019C91923008F447C08081823008F458
:100C000043C0943051F411961C91843099F5818140
:100C1000682F70E0611B71093FC0843021F0923071
:100C200031F48230B9F18181882389F12DC0119688
:100C30001C9111978230F1F081811817D9F4129626
:100C40002D913C911397828193818217930794F0A1
:100C500028173907BCF014968D919D910D90BC9189
:100C6000A02D2481358146815781281739074A07ED
:100C70005B0718F4112341F00AC082179307A407F9
:100C8000B50740F4112319F061E070E005C06FEF83
:100C90007FEF02C060E070E0CB011F910895DF9309
:100CA000CF93CDB7DEB7E8970FB6F894DEBF0FBE8F
:100CB000CDBF8CE06FEF0E94760C81E260E04AE5E8
:100CC0000E943D0D81E261E04AE50E943D0D81E216
:100CD00062E04AE50E943D0D80E090E0A0EFB1E4C3
:100CE0008DAB9EABAFABB8AF6DA97EA98FA998AD08
:100CF00020E030E04AEF54E40E941F02DC01CB0107
:100D000089AB9AABABABBCAB69A97AA98BA99CA9FF
:100D100020E030E040E85FE30E94250488232CF4C3
:100D200081E090E098AB8FA73FC069A97AA98BA911
:100D30009CA920E03FEF4FE757E40E94C503181637
:100D40004CF56DA97EA98FA998AD20E030E040E276
:100D500051E40E941F02DC01CB01BC01CD010E94C5
:100D60004900DC01CB0198AB8FA70FC088EC90E065
:100D70009EA78DA78DA59EA50197F1F79EA78DA78C
:100D80008FA598A9019798AB8FA78FA598A90097D1
:100D900069F714C069A97AA98BA99CA90E94490086
:100DA000DC01CB0198AB8FA78FA598A99CA78BA737
:100DB0008BA59CA50197F1F79CA78BA78FE30E94B9
:100DC000F50980E090E0A8E4B2E48FA398A7A9A772
:100DD000BAA76FA178A589A59AA520E030E04AEFCF
:100DE00054E40E941F02DC01CB018BA39CA3ADA3A2
:100DF000BEA36BA17CA18DA19EA120E030E040E8C4
:100E00005FE30E94250488232CF481E090E09AA3FC
:100E100089A33FC06BA17CA18DA19EA120E03FEFE3
:100E20004FE757E40E94C50318164CF56FA178A54B
:100E300089A59AA520E030E040E251E40E941F021B
:100E4000DC01CB01BC01CD010E944900DC01CB01DA
:100E50009AA389A30FC088EC90E098A38F8F8F8D01
:100E600098A10197F1F798A38F8F89A19AA1019773
:100E70009AA389A389A19AA1009769F714C06BA1CD
:100E80007CA18DA19EA10E944900DC01CB019AA307
:100E900089A389A19AA19E8F8D8F8D8D9E8D01979B
:100EA000F1F79E8F8D8F8CE00E94F50980E090E035
:100EB000A8E4B2E4898F9A8FAB8FBC8F698D7A8D4D
:100EC0008B8D9C8D20E030E04AEF54E40E941F029D
:100ED000DC01CB018D8B9E8BAF8BB88F6D897E89AA
:100EE0008F89988D20E030E040E85FE30E94250480
:100EF00088232CF481E090E09C8B8B8B3FC06D8924
:100F00007E898F89988D20E03FEF4FE757E40E945C
:100F1000C50318164CF5698D7A8D8B8D9C8D20E05C
:100F200030E040E251E40E941F02DC01CB01BC0131
:100F3000CD010E944900DC01CB019C8B8B8B0FC043
:100F400088EC90E09A8B898B89899A890197F1F7CF
:100F50009A8B898B8B899C8901979C8B8B8B8B8936
:100F60009C89009769F714C06D897E898F89988D57
:100F70000E944900DC01CB019C8B8B8B8B899C8967
:100F8000988B8F878F8598890197F1F7988B8F873A
:100F90000E94A20B86E00E94F50980E090E0A8E4A0
:100FA000B2E48B879C87AD87BE876B857C858D85FA
:100FB0009E8520E030E04AEF54E40E941F02DC01ED
:100FC000CB018F839887A987BA876F8178858985B8
:100FD0009A8520E030E040E85FE30E942504882302
:100FE0002CF481E090E09E838D833FC06F817885F3
:100FF00089859A8520E03FEF4FE757E40E94C503BB
:1010000018164CF56B857C858D859E8520E030E03B
:1010100040E251E40E941F02DC01CB01BC01CD0182
:101020000E944900DC01CB019E838D830FC088ECB8
:1010300090E09C838B838B819C810197F1F79C834B
:101040008B838D819E8101979E838D838D819E816F
:10105000009769F714C06F81788589859A850E9409
:101060004900DC01CB019E838D838D819E819A8313
:10107000898389819A810197F1F79A838983E89618
:101080000FB6F894DEBF0FBECDBFCF91DF910895AC
:10109000DF93CF93CDB7DEB7E1970FB6F894DEBFFD
:1010A0000FBECDBF89AB81E261E040E00E94230F1B
:1010B00081E260E041E00E94230F8CE069A90E9478
:1010C000B80C81E262E040E00E94230F81E262E01E
:1010D00041E00E94230F80E090E0A0E8BFE38DA7ED
:1010E0009EA7AFA7B8AB6DA57EA58FA598A92BEA43
:1010F0003AEA4AE250E40E941F02DC01CB0189A7D0
:101100009AA7ABA7BCA769A57AA58BA59CA520E04B
:1011100030E040E85FE30E94250488231CF481E06E
:1011200088A791C069A57AA58BA59CA520E030E091
:101130004FE753E40E94C50318160CF07BC06DA561
:101140007EA58FA598A920E030E04AE754E40E94EC
:101150001903DC01CB018CA39DA3AEA3BFA36CA19B
:101160007DA18EA19FA120E030E04AEF54E40E94CF
:101170001F02DC01CB0188A399A3AAA3BBA368A18A
:1011800079A18AA19BA120E030E040E85FE30E94C2
:10119000250488232CF481E090E09F8F8E8F3FC040
:1011A00068A179A18AA19BA120E03FEF4FE757E416
:1011B0000E94C50318164CF56CA17DA18EA19FA1BC
:1011C00020E030E040E251E40E941F02DC01CB014C
:1011D000BC01CD010E944900DC01CB019F8F8E8FA5
:1011E0000FC088EC90E09D8F8C8F8C8D9D8D01972A
:1011F000F1F79D8F8C8F8E8D9F8D01979F8F8E8F96
:101200008E8D9F8D009769F724C068A179A18AA16E
:101210009BA10E944900DC01CB019F8F8E8F8E8D98
:101220009F8D9B8F8A8F8A8D9B8D0197F1F79B8F66
:101230008A8F0FC069A57AA58BA59CA50E9449003D
:10124000DC01CB0188A788A5898F898D8A95F1F764
:10125000898F81E262E040E00E94230F80E090E00D
:10126000A0E8BFE38D8B9E8BAF8BB88F6D897E8995
:101270008F89988D2BEA3AEA4AE250E40E941F02D5
:10128000DC01CB01898B9A8BAB8BBC8B69897A890A
:101290008B899C8920E030E040E85FE30E942504D0
:1012A00088231CF481E0888B91C069897A898B89B5
:1012B0009C8920E030E04FE753E40E94C5031816F4
:1012C0000CF07BC06D897E898F89988D20E030E09D
:1012D0004AE754E40E941903DC01CB018C879D8707
:1012E000AE87BF876C857D858E859F8520E030E049
:1012F0004AEF54E40E941F02DC01CB0188879987E2
:10130000AA87BB87688579858A859B8520E030E040
:1013100040E85FE30E94250488232CF481E090E0FC
:101320009F838E833FC0688579858A859B8520E071
:101330003FEF4FE757E40E94C50318164CF56C8544
:101340007D858E859F8520E030E040E251E40E945B
:101350001F02DC01CB01BC01CD010E944900DC0170
:10136000CB019F838E830FC088EC90E09D838C839C
:101370008C819D810197F1F79D838C838E819F8164
:1013800001979F838E838E819F81009769F724C088
:10139000688579858A859B850E944900DC01CB019F
:1013A0009F838E838E819F819B838A838A819B8189
:1013B0000197F1F79B838A830FC069897A898B89AA
:1013C0009C890E944900DC01CB01888B8889898334
:1013D00089818A95F1F78983E1960FB6F894DEBF8B
:1013E0000FBECDBFCF91DF910895DF93CF93CDB7DF
:1013F000DEB7E1970FB6F894DEBF0FBECDBF89AB65
:1014000081E261E040E00E94230F81E260E040E081
:101410000E94230F8CE069A90E94B80C81E262E06F
:1014200040E00E94230F81E262E041E00E94230F2E
:1014300080E090E0A0E8BFE38DA79EA7AFA7B8AB80
:101440006DA57EA58FA598A92BEA3AEA4AE250E459
:101450000E941F02DC01CB0189A79AA7ABA7BCA7FA
:1014600069A57AA58BA59CA520E030E040E85FE364
:101470000E94250488231CF481E088A791C069A5F7
:101480007AA58BA59CA520E030E04FE753E40E94AD
:10149000C50318160CF07BC06DA57EA58FA598A975
:1014A00020E030E04AE754E40E941903DC01CB015C
:1014B0008CA39DA3AEA3BFA36CA17DA18EA19FA170
:1014C00020E030E04AEF54E40E941F02DC01CB012F
:1014D00088A399A3AAA3BBA368A179A18AA19BA170
:1014E00020E030E040E85FE30E94250488232CF4EC
:1014F00081E090E09F8F8E8F3FC068A179A18AA183
:101500009BA120E03FEF4FE757E40E94C503181668
:101510004CF56CA17DA18EA19FA120E030E040E2BE
:1015200051E40E941F02DC01CB01BC01CD010E94ED
:101530004900DC01CB019F8F8E8F0FC088EC90E0BB
:101540009D8F8C8F8C8D9D8D0197F1F79D8F8C8F4A
:101550008E8D9F8D01979F8F8E8F8E8D9F8D009783
:1015600069F724C068A179A18AA19BA10E944900C2
:10157000DC01CB019F8F8E8F8E8D9F8D9B8F8A8FED
:101580008A8D9B8D0197F1F79B8F8A8F0FC069A57C
:101590007AA58BA59CA50E944900DC01CB0188A7F8
:1015A00088A5898F898D8A95F1F7898F81E262E01C
:1015B00040E00E94230F80E090E0A0E8BFE38D8B25
:1015C0009E8BAF8BB88F6D897E898F89988D2BEA22
:1015D0003AEA4AE250E40E941F02DC01CB01898B07
:1015E0009A8BAB8BBC8B69897A898B899C8920E02B
:1015F00030E040E85FE30E94250488231CF481E08A
:10160000888B91C069897A898B899C8920E030E038
:101610004FE753E40E94C50318160CF07BC06D8998
:101620007E898F89988D20E030E04AE754E40E945B
:101630001903DC01CB018C879D87AE87BF876C8542
:101640007D858E859F8520E030E04AEF54E40E943E
:101650001F02DC01CB0188879987AA87BB87688531
:1016600079858A859B8520E030E040E85FE30E9431
:10167000250488232CF481E090E09F838E833FC073
:10168000688579858A859B8520E03FEF4FE757E4A1
:101690000E94C50318164CF56C857D858E859F8547
:1016A00020E030E040E251E40E941F02DC01CB0167
:1016B000BC01CD010E944900DC01CB019F838E83D8
:1016C0000FC088EC90E09D838C838C819D81019775
:1016D000F1F79D838C838E819F8101979F838E83F9
:1016E0008E819F81009769F724C0688579858A85F6
:1016F0009B850E944900DC01CB019F838E838E81F4
:101700009F819B838A838A819B810197F1F79B83C9
:101710008A830FC069897A898B899C890E944900D4
:10172000DC01CB01888B8889898389818A95F1F7CF
:101730008983E1960FB6F894DEBF0FBECDBFCF917F
:10174000DF910895DF93CF93CDB7DEB72E970FB615
:10175000F894DEBF0FBECDBF81E00E94F50980E0A6
:1017600090E0A0E0B0E48B879C87AD87BE876B8557
:101770007C858D859E8520E030E04AEF54E40E9410
:101780001F02DC01CB018F839887A987BA876F81FD
:10179000788589859A8520E030E040E85FE30E9403
:1017A000250488232CF481E090E09E838D833FC044
:1017B0006F81788589859A8520E03FEF4FE757E470
:1017C0000E94C50318164CF56B857C858D859E851A
:1017D00020E030E040E251E40E941F02DC01CB0136
:1017E000BC01CD010E944900DC01CB019E838D83A9
:1017F0000FC088EC90E09C838B838B819C81019748
:10180000F1F79C838B838D819E8101979E838D83CD
:101810008D819E81009769F714C06F8178858985D5
:101820009A850E944900DC01CB019E838D838D81C6
:101830009E819A83898389819A810197F1F79A839E
:1018400089832E960FB6F894DEBF0FBECDBFCF9121
:10185000DF910895DF93CF9300D00F92CDB7DEB71D
:101860009B838A8319828981282F30E08A819B811A
:10187000FC01E20FF31F80810E94480889818F5F7D
:1018800089838981282F30E08A819B81FC01E20FC6
:10189000F31F8081882339F70F900F900F90CF911D
:1018A000DF910895DF93CF9300D0CDB7DEB7898362
:1018B0006A8389818230A8F48A81803190F4898199
:1018C000882F90E0002496958795079496958795A4
:1018D0000794982F802D982F90688A81892B0E94D9
:1018E000F5090F900F90CF91DF910895DF93CF937B
:1018F00000D000D0CDB7DEB789836A838981282FD5
:1019000030E03C832B838B819C818C309105B1F03E
:101910002B813C812D30310534F48B819C818530C5
:101920009105D9F01EC02B813C812132310559F03F
:101930008B819C818832910559F013C0E9E3F0E076
:101940008A8181830EC0E6E3F0E08A81818309C049
:10195000E3E3F0E08A81818304C0E0E3F0E08A8180
:1019600081830F900F900F900F90CF91DF9108958A
:10197000DF93CF9300D000D0CDB7DEB789836A83E1
:101980008981282F30E03C832B838B819C818C3094
:101990009105B1F02B813C812D30310534F48B81E0
:1019A0009C8185309105D9F01EC02B813C8121326C
:1019B000310559F08B819C818832910559F013C013
:1019C000E9E3F0E08A8182830EC0E6E3F0E08A81F9
:1019D000828309C0E3E3F0E08A81828304C0E0E30C
:1019E000F0E08A8182830F900F900F900F90CF913B
:1019F000DF910895DF93CF9300D000D0CDB7DEB74D
:101A00008A8319828A81282F30E03C832B838B8143
:101A10009C818C309105B1F02B813C812D303105BA
:101A200034F48B819C8185309105D9F01EC02B81C7
:101A30003C812132310559F08B819C81883291059E
:101A400059F013C0E9E3F0E0808189830EC0E6E33A
:101A5000F0E08081898309C0E3E3F0E0808189833D
:101A600004C0E0E3F0E08081898389810F900F90CA
:101A70000F900F90CF91DF910895DF93CF93CDB763
:101A8000DEB729970FB6F894DEBF0FBECDBF8983AE
:101A90006A834B838A81883008F0CCC18B818A3578
:101AA00009F079C08981282F30E039872887888517
:101AB00099858C309105B9F0288539852D3031050F
:101AC0003CF4888599858530910509F44EC0B2C1F2
:101AD0002885398521323105E1F08885998588325C
:101AE000910569F1A7C1A9E3B0E0E9E3F0E08181E4
:101AF000482F8A81282F30E081E090E0022E02C03A
:101B0000880F991F0A94E2F7842B11968C931197F2
:101B100091C1A6E3B0E0E6E3F0E08181482F8A813D
:101B2000282F30E081E090E0022E02C0880F991F3C
:101B30000A94E2F7842B11968C9311977BC1A3E34F
:101B4000B0E0E3E3F0E08181482F8A81282F30E084
:101B500081E090E0022E02C0880F991F0A94E2F7FC
:101B6000842B11968C93119765C1A0E3B0E0E0E35C
:101B7000F0E08181482F8A81282F30E081E090E0D9
:101B8000022E02C0880F991F0A94E2F7842B119647
:101B90008C9311974FC18B81843609F07EC0898167
:101BA000282F30E03F832E838E819F818C309105DA
:101BB00009F445C02E813F812D3031053CF48E81E2
:101BC0009F818530910509F451C034C12E813F8138
:101BD0002132310531F08E819F8188329105C1F02B
:101BE00029C1A6E3B0E0E6E3F0E08181482F8A81D5
:101BF000282F30E081E090E0022E02C0880F991F6C
:101C00000A94E2F78095842311968C93119712C160
:101C1000A3E3B0E0E3E3F0E08181482F8A81282F3D
:101C200030E081E090E0022E02C0880F991F0A94F4
:101C3000E2F78095842311968C931197FBC0A9E35A
:101C4000B0E0E9E3F0E08181482F8A81282F30E07D
:101C500081E090E0022E02C0880F991F0A94E2F7FB
:101C60008095842311968C931197E4C0A0E3B0E093
:101C7000E0E3F0E08181482F8A81282F30E081E085
:101C800090E0022E02C0880F991F0A94E2F7809517
:101C9000842311968C931197CDC08B81883C09F0D9
:101CA000C9C08981282F30E03D832C838C819D81A0
:101CB0008C30910509F46BC02C813D812D303105AC
:101CC0003CF48C819D818530910509F48AC0B2C0B5
:101CD0002C813D812132310531F08C819D8188320A
:101CE000910559F1A7C0A6E3B0E0E6E3F0E08181F9
:101CF000482F8A81282F30E081E090E002C0880FD1
:101D0000991F2A95E2F78095842311968C93A9E375
:101D1000B0E0E9E3F0E08281482F8A81282F30E0AB
:101D200081E090E0022E02C0880F991F0A94E2F72A
:101D3000842B12968C9312977DC0A3E3B0E0E3E36B
:101D4000F0E08181482F8A81282F30E081E090E007
:101D500002C0880F991F2A95E2F780958423119677
:101D60008C93A6E3B0E0E6E3F0E08281482F8A811D
:101D7000282F30E081E090E0022E02C0880F991FEA
:101D80000A94E2F7842B12968C93129753C0A9E31E
:101D9000B0E0E9E3F0E08181482F8A81282F30E02C
:101DA00081E090E002C0880F991F2A95E2F78095A4
:101DB000842311968C93A3E3B0E0E3E3F0E0828107
:101DC000482F8A81282F30E081E090E0022E02C067
:101DD000880F991F0A94E2F7842B12968C9312971E
:101DE00029C0A0E3B0E0E0E3F0E08181482F8A81E0
:101DF000282F30E081E090E002C0880F991F2A95DB
:101E0000E2F78095842311968C93A0E3B0E0E0E3A1
:101E1000F0E08281482F8A81282F30E081E090E035
:101E2000022E02C0880F991F0A94E2F7842B1296A3
:101E30008C93129729960FB6F894DEBF0FBECDBFD4
:101E4000CF91DF910895DF93CF93CDB7DEB727977A
:101E50000FB6F894DEBF0FBECDBF89836A834B8374
:101E60008A81883008F0FEC08B81813009F079C00A
:101E70008981282F30E03F832E838E819F818C3093
:101E80009105B9F02E813F812D3031053CF48E81D2
:101E90009F818530910509F44EC0E4C02E813F81B9
:101EA00021323105E1F08E819F818832910569F1FF
:101EB000D9C0A9E3B0E0E9E3F0E08281482F8A814C
:101EC000282F30E081E090E0022E02C0880F991F99
:101ED0000A94E2F7842B12968C931297C3C0A6E360
:101EE000B0E0E6E3F0E08281482F8A81282F30E0DD
:101EF00081E090E0022E02C0880F991F0A94E2F759
:101F0000842B12968C931297ADC0A3E3B0E0E3E369
:101F1000F0E08281482F8A81282F30E081E090E034
:101F2000022E02C0880F991F0A94E2F7842B1296A2
:101F30008C93129797C0A0E3B0E0E0E3F0E08281D9
:101F4000482F8A81282F30E081E090E0022E02C0E5
:101F5000880F991F0A94E2F7842B12968C9312979C
:101F600081C08B81882309F07DC08981282F30E0D2
:101F70003D832C838C819D818C30910509F445C073
:101F80002C813D812D3031053CF48C819D81853043
:101F9000910509F451C066C02C813D812132310583
:101FA00031F08C819D8188329105C1F05BC0A6E340
:101FB000B0E0E6E3F0E08281482F8A81282F30E00C
:101FC00081E090E0022E02C0880F991F0A94E2F788
:101FD0008095842312968C93129744C0A3E3B0E0BB
:101FE000E3E3F0E08281482F8A81282F30E081E00E
:101FF00090E0022E02C0880F991F0A94E2F78095A4
:10200000842312968C9312972DC0A9E3B0E0E9E3E4
:10201000F0E08281482F8A81282F30E081E090E033
:10202000022E02C0880F991F0A94E2F7809584233C
:1020300012968C93129716C0A0E3B0E0E0E3F0E0B4
:102040008281482F8A81282F30E081E090E0022EA3
:1020500002C0880F991F0A94E2F780958423129694
:102060008C93129727960FB6F894DEBF0FBECDBFA4
:10207000CF91DF910895DF93CF9300D000D00F92DE
:10208000CDB7DEB78A836B838B81883008F068C058
:102090008A81282F30E03D832C834C815D814C3038
:1020A0005105B9F08C819D818D3091053CF42C81D6
:1020B0003D812530310509F442C052C04C815D811B
:1020C00041325105C1F08C819D818832910529F101
:1020D00047C0E9E3F0E08081282F30E08B81882F32
:1020E00090E0A90102C0559547958A95E2F7CA018B
:1020F0008170898335C0E6E3F0E08081282F30E0ED
:102100008B81882F90E0A90102C0559547958A954B
:10211000E2F7CA018170898323C0E3E3F0E08081A4
:10212000282F30E08B81882F90E0A90102C05595BF
:1021300047958A95E2F7CA018170898311C0E0E36F
:10214000F0E08081282F30E08B81882F90E0A9017A
:1021500002C0559547958A95E2F7CA018170898337
:1021600089810F900F900F900F900F90CF91DF917A
:1021700008950F931F93DF93CF93CDB7DEB7C15967
:10218000D0400FB6F894DEBF0FBECDBF0E944F0601
:102190000E94EE1781E067E00E94520C81E00E94ED
:1021A00048080E94EE1781E06EE00E94520C81E028
:1021B0000E9448080E94131881E068E00E94520CB7
:1021C00082E00E9448080E94891881E06FE00E9426
:1021D000520C84E00E94480885E061E048EC0E94CF
:1021E0003D0D85E060E048EC0E943D0DFE01E357A7
:1021F000FF4F1082FE01E357FF4F8081882359F57E
:102200000E94A20B0E94EE1781E067E00E94520C30
:1022100081E00E9448080E94EE1781E06EE00E9473
:10222000520C81E00E9448080E94131881E068E087
:102230000E94520C82E00E9448080E94891881E0A6
:102240006FE00E94520C84E00E944808FE01E357B0
:10225000FF4F81E0808385E061E00E943B1088238E
:1022600049F6FE01E757FF4F80E090E0A8E4B2E4B2
:1022700080839183A283B3838E010B571F4FFE018E
:10228000E757FF4F608171818281938120E030E0C8
:102290004AEF54E40E941F02DC01CB01F801808365
:1022A0009183A283B383FE01EB57FF4F608171815D
:1022B0008281938120E030E040E85FE30E942504C2
:1022C000882344F4FE01ED57FF4F81E090E09183B5
:1022D000808364C0FE01EB57FF4F60817181828172
:1022E000938120E03FEF4FE757E40E94C5031816A3
:1022F0000CF043C0FE01E757FF4F6081718182817E
:10230000938120E030E040E251E40E941F02DC01B2
:10231000CB018E010D571F4FBC01CD010E9449001A
:10232000DC01CB01F801918380831FC0FE01EF57D0
:10233000FF4F88EC90E091838083FE01EF57FF4FC1
:10234000808191810197F1F7FE01EF57FF4F918353
:102350008083DE01AD57BF4FFE01ED57FF4F8081F7
:102360009181019711969C938E93FE01ED57FF4F3B
:10237000808191810097D1F627C08E010D571F4FA4
:10238000FE01EB57FF4F60817181828193810E9432
:102390004900DC01CB01F80191838083DE01A15863
:1023A000BF4FFE01ED57FF4F808191818D939C932C
:1023B000FE01E158FF4F808191810197F1F7FE0105
:1023C000E158FF4F918380830E94C217FE01E558B8
:1023D000FF4F80E090E0AAE7B3E480839183A2837B
:1023E000B3838E0109581F4FFE01E558FF4F6081EE
:1023F00071818281938120E030E04AEF54E40E94B1
:102400001F02DC01CB01F80180839183A283B38397
:10241000FE01E958FF4F608171818281938120E044
:1024200030E040E85FE30E942504882344F4FE0185
:10243000EB58FF4F81E090E09183808364C0FE0100
:10244000E958FF4F608171818281938120E03FEFE5
:102450004FE757E40E94C50318160CF043C0FE0175
:10246000E558FF4F608171818281938120E030E0E7
:1024700040E251E40E941F02DC01CB018E010B58A7
:102480001F4FBC01CD010E944900DC01CB01F801C6
:10249000918380831FC0FE01ED58FF4F88EC90E0D0
:1024A00091838083FE01ED58FF4F808191810197D8
:1024B000F1F7FE01ED58FF4F91838083DE01AB58A9
:1024C000BF4FFE01EB58FF4F80819181019711961C
:1024D0009C938E93FE01EB58FF4F80819181009772
:1024E000D1F627C08E010B581F4FFE01E958FF4F50
:1024F00060817181828193810E944900DC01CB015E
:10250000F80191838083DE01AF58BF4FFE01EB5885
:10251000FF4F808191818D939C93FE01EF58FF4F77
:10252000808191810197F1F7FE01EF58FF4F918370
:1025300080830E94EE1781E067E00E94520C81E0E8
:102540000E944808FE01E359FF4F80E090E0ACE8AC
:10255000B2E480839183A283B3838E0107591F4F16
:10256000FE01E359FF4F608171818281938120E0F8
:1025700030E04AEF54E40E941F02DC01CB01F80175
:1025800080839183A283B383FE01E759FF4F60816B
:1025900071818281938120E030E040E85FE30E9416
:1025A0002504882344F4FE01E959FF4F81E090E0BF
:1025B0009183808364C0FE01E759FF4F6081718180
:1025C0008281938120E03FEF4FE757E40E94C503EB
:1025D00018160CF043C0FE01E359FF4F6081718172
:1025E0008281938120E030E040E251E40E941F02AA
:1025F000DC01CB018E0109591F4FBC01CD010E94A6
:102600004900DC01CB01F801918380831FC0FE01EA
:10261000EB59FF4F88EC90E091838083FE01EB59EA
:10262000FF4F808191810197F1F7FE01EB59FF4F38
:1026300091838083DE01A959BF4FFE01E959FF4F05
:1026400080819181019711969C938E93FE01E959A7
:10265000FF4F808191810097D1F628C08E010959E2
:102660001F4FFE01E759FF4F608171818281938185
:102670000E944900DC01CB01F80191838083DE01D7
:10268000AD59BF4FFE01E959FF4F808191811196ED
:102690009C938E93FE01ED59FF4F808191810197AC
:1026A000F1F7FE01ED59FF4F91838083FE01E25760
:1026B000FF4F89E090E091838083ACC20E94641850
:1026C000FE01E257FF4F8081982F915081E0692FE2
:1026D0000E94520C83E00E9448080E941318FE01D9
:1026E000E257FF4F908181E0692F0E94520C82E0F7
:1026F0000E944808FE01E15AFF4F80E090E0AAE204
:10270000B3E480839183A283B3838E01055A1F4F64
:10271000FE01E15AFF4F608171818281938120E047
:1027200030E04AEF54E40E941F02DC01CB01F801C3
:1027300080839183A283B383FE01E55AFF4F6081BA
:1027400071818281938120E030E040E85FE30E9464
:102750002504882344F4FE01E75AFF4F81E090E00E
:102760009183808364C0FE01E55AFF4F60817181CF
:102770008281938120E03FEF4FE757E40E94C50339
:1027800018160CF043C0FE01E15AFF4F60817181C1
:102790008281938120E030E040E251E40E941F02F8
:1027A000DC01CB018E01075A1F4FBC01CD010E94F5
:1027B0004900DC01CB01F801918380831FC0FE0139
:1027C000E95AFF4F88EC90E091838083FE01E95A3B
:1027D000FF4F808191810197F1F7FE01E95AFF4F88
:1027E00091838083DE01A75ABF4FFE01E75AFF4F56
:1027F00080819181019711969C938E93FE01E75AF7
:10280000FF4F808191810097D1F628C08E01075A31
:102810001F4FFE01E55AFF4F6081718182819381D4
:102820000E944900DC01CB01F80191838083DE0125
:10283000AB5ABF4FFE01E75AFF4F8081918111963D
:102840009C938E93FE01EB5AFF4F808191810197FB
:10285000F1F7FE01EB5AFF4F91838083FE01E257AF
:10286000FF4F808191818E30910509F0C7C185E0CD
:1028700060E00E943B10882309F0C0C1FE01EF5ABE
:10288000FF4F80E090E0A0E2B1E480839183A283D7
:10289000B3838E01035B1F4FFE01EF5AFF4F608130
:1028A00071818281938120E030E04AEF54E40E94FC
:1028B0001F02DC01CB01F80180839183A283B383E3
:1028C000FE01E35BFF4F608171818281938120E093
:1028D00030E040E85FE30E942504882344F4FE01D1
:1028E000E55BFF4F81E090E09183808364C0FE014F
:1028F000E35BFF4F608171818281938120E03FEF34
:102900004FE757E40E94C50318160CF043C0FE01C0
:10291000EF5AFF4F608171818281938120E030E026
:1029200040E251E40E941F02DC01CB018E01055BF5
:102930001F4FBC01CD010E944900DC01CB01F80111
:10294000918380831FC0FE01E75BFF4F88EC90E01E
:1029500091838083FE01E75BFF4F80819181019726
:10296000F1F7FE01E75BFF4F91838083DE01A55BFA
:10297000BF4FFE01E55BFF4F80819181019711966A
:102980009C938E93FE01E55BFF4F808191810097C0
:10299000D1F627C08E01055B1F4FFE01E35BFF4FA1
:1029A00060817181828193810E944900DC01CB01A9
:1029B000F80191838083DE01A95BBF4FFE01E55BD7
:1029C000FF4F808191818D939C93FE01E95BFF4FC6
:1029D000808191810197F1F7FE01E95BFF4F9183BF
:1029E00080830E943818FE01ED5BFF4F80E090E08D
:1029F000AAE7B4E480839183A283B3838E01015C50
:102A00001F4FFE01ED5BFF4F6081718182819381D9
:102A100020E030E04AEF54E40E941F02DC01CB01C9
:102A2000F80180839183A283B383FE01FF966081C6
:102A300071818281938120E030E040E85FE30E9471
:102A4000250488232CF481E090E09EAF8DAF46C032
:102A5000FE01FF96608171818281938120E03FEFCA
:102A60004FE757E40E94C503181664F5FE01ED5BBD
:102A7000FF4F608171818281938120E030E040E2EC
:102A800051E40E941F02DC01CB01BC01CD010E9478
:102A90004900DC01CB019EAF8DAF0FC088EC90E008
:102AA0009CAF8BAF8BAD9CAD0197F1F79CAF8BAF1B
:102AB0008DAD9EAD01979EAF8DAF8DAD9EAD009754
:102AC00069F716C0FE01FF96608171818281938152
:102AD0000E944900DC01CB019EAF8DAF8DAD9EAD54
:102AE0009AAF89AF89AD9AAD0197F1F79AAF89AFE7
:102AF0000E94A20B80E064E00E94520C80E690E00D
:102B00000E942A0C0E94DA1880E06AE00E94520CAF
:102B100086E00E94480880E090E0AAEFB4E48DAB24
:102B20009EABAFABB8AF6DA97EA98FA998AD20E0E1
:102B300030E04AEF54E40E941F02DC01CB0189AB74
:102B40009AABABABBCAB69A97AA98BA99CA920E0D5
:102B500030E040E85FE30E94250488232CF481E004
:102B600090E098AB8FA73FC069A97AA98BA99CA9CF
:102B700020E03FEF4FE757E40E94C50318164CF5DD
:102B80006DA97EA98FA998AD20E030E040E251E424
:102B90000E941F02DC01CB01BC01CD010E94490053
:102BA000DC01CB0198AB8FA70FC088EC90E09EA70B
:102BB0008DA78DA59EA50197F1F79EA78DA78FA53F
:102BC00098A9019798AB8FA78FA598A9009769F747
:102BD0002AC069A97AA98BA99CA90E944900DC0195
:102BE000CB0198AB8FA78FA598A99CA78BA78BA586
:102BF0009CA50197F1F79CA78BA715C0DE01A257F2
:102C0000BF4FFE01E257FF4F8081918101961196DF
:102C10009C938E93FE01E257FF4F808191818F300C
:102C200091050CF44BCDFE01E257FF4F808191815D
:102C30008F3091052CF4FE01E357FF4F1082DACA62
:102C400080E090E0A8E4B2E48FA398A7A9A7BAA770
:102C50006FA178A589A59AA520E030E04AEF54E459
:102C60000E941F02DC01CB018BA39CA3ADA3BEA3DA
:102C70006BA17CA18DA19EA120E030E040E85FE344
:102C80000E94250488232CF481E090E09AA389A374
:102C90003FC06BA17CA18DA19EA120E03FEF4FE73B
:102CA00057E40E94C50318164CF56FA178A589A5B5
:102CB0009AA520E030E040E251E40E941F02DC01CE
:102CC000CB01BC01CD010E944900DC01CB019AA3DC
:102CD00089A30FC088EC90E098A38F8F8F8D98A167
:102CE0000197F1F798A38F8F89A19AA101979AA3D1
:102CF00089A389A19AA1009769F714C06BA17CA14F
:102D00008DA19EA10E944900DC01CB019AA389A359
:102D100089A19AA19E8F8D8F8D8D9E8D0197F1F740
:102D20009E8F8D8F0E94A20B80E064E00E94520C67
:102D300087E690E00E942A0CFE01E057FF4F1182C7
:102D4000108212C10E94B51880E063E00E94520C0C
:102D500085E00E94480880E090E0A8ECB2E4898F0A
:102D60009A8FAB8FBC8F698D7A8D8B8D9C8D20E077
:102D700030E04AEF54E40E941F02DC01CB018D8B4E
:102D80009E8BAF8BB88F6D897E898F89988D20E05F
:102D900030E040E85FE30E94250488232CF481E0C2
:102DA00090E09C8B8B8B3FC06D897E898F89988D3D
:102DB00020E03FEF4FE757E40E94C50318164CF59B
:102DC000698D7A8D8B8D9C8D20E030E040E251E45E
:102DD0000E941F02DC01CB01BC01CD010E94490011
:102DE000DC01CB019C8B8B8B0FC088EC90E09A8B25
:102DF000898B89899A890197F1F79A8B898B8B89BD
:102E00009C8901979C8B8B8B8B899C89009769F798
:102E100014C06D897E898F89988D0E944900DC01DC
:102E2000CB019C8B8B8B8B899C89988B8F878F8513
:102E300098890197F1F7988B8F870E94641880E03A
:102E400063E00E94520C83E00E94480880E06CE03E
:102E50000E94520C85E00E94480880E090E0A8ECB7
:102E6000B2E48B879C87AD87BE876B857C858D851B
:102E70009E8520E030E04AEF54E40E941F02DC010E
:102E8000CB018F839887A987BA876F8178858985D9
:102E90009A8520E030E040E85FE30E942504882323
:102EA0002CF481E090E09E838D833FC06F81788514
:102EB00089859A8520E03FEF4FE757E40E94C503DC
:102EC00018164CF56B857C858D859E8520E030E05D
:102ED00040E251E40E941F02DC01CB01BC01CD01A4
:102EE0000E944900DC01CB019E838D830FC088ECDA
:102EF00090E09C838B838B819C810197F1F79C836D
:102F00008B838D819E8101979E838D838D819E8190
:102F1000009769F714C06F81788589859A850E942A
:102F20004900DC01CB019E838D838D819E819A8334
:102F3000898389819A810197F1F79A8389830E9415
:102F4000641880E06CE00E94520C83E00E94480804
:102F5000DE01A057BF4FFE01E057FF4F80819181F6
:102F6000019611969C938E93FE01E057FF4F80814E
:102F700091818A3091050CF4E5CEFE01E357FF4FB5
:102F8000108238C9DF93CF9300D0CDB7DEB780E48D
:102F90000E94F5091A82198210C089819A81880FCE
:102FA000991FFC01E358FF4F808191810E944808DE
:102FB00089819A8101969A83898389819A8188304F
:102FC00091055CF381E067E00E94520C80E00E9472
:102FD00048080F900F90CF91DF910895DF93CF9322
:102FE00000D0CDB7DEB788E40E94F5091A821982B5
:102FF00010C089819A81880F991FFC01E357FF4F08
:10300000808191810E94480889819A8101969A83E2
:10301000898389819A81883091055CF30F900F90A4
:10302000CF91DF910895DF93CF9300D0CDB7DEB776
:1030300080E50E94F5091A82198210C089819A815F
:10304000880F991FFC01E356FF4F808191810E94F8
:10305000480889819A8101969A83898389819A8116
:10306000883091055CF30F900F90CF91DF91089518
:10307000DF93CF9300D0CDB7DEB788E70E94F50984
:103080001A82198210C089819A81880F991FFC01C8
:10309000E352FF4F808191810E94480889819A8183
:1030A00001969A83898389819A81883091055CF39E
:1030B00081E06EE00E94520C87E00E9448080F9069
:1030C0000F90CF91DF910895DF93CF9300D0CDB7CC
:1030D000DEB788E50E94F5091A82198210C089813D
:1030E0009A81880F991FFC01E251FF4F80819181E5
:1030F0000E94480889819A8101969A8389838981EF
:103100009A81883091055CF30F900F90CF91DF91F9
:103110000895DF93CF9300D0CDB7DEB780E60E944D
:10312000F5091A82198210C089819A81880F991F26
:10313000FC01E355FF4F808191810E9448088981FD
:103140009A8101969A83898389819A818830910531
:103150005CF381E06FE00E94520C84E00E9448081A
:103160000F900F90CF91DF910895DF93CF9300D010
:10317000CDB7DEB788E60E94F5091A82198210C021
:1031800089819A81880F991FFC01E354FF4F808148
:1031900091810E94480889819A8101969A83898346
:1031A00089819A81883091055CF30F900F90CF91BF
:1031B000DF910895DF93CF9300D0CDB7DEB780E7DE
:1031C0000E94F5091A82198210C089819A81880F9C
:1031D000991FFC01E353FF4F808191810E944808B1
:1031E00089819A8101969A83898389819A8188301D
:1031F00091055CF30F900F90CF91DF9108952F927E
:103200003F924F925F926F927F928F929F92AF9276
:10321000BF92CF92DF92EF92FF920F931F93CF93C3
:10322000DF93CDB7DEB7CA1BDB0B0FB6F894DEBF5A
:103230000FBECDBF09942A88398848885F846E8480
:103240007D848C849B84AA84B984C884DF80EE80CA
:10325000FD800C811B81AA81B981CE0FD11D0FB6D3
:10326000F894DEBF0FBECDBFED010895F894FFCFF7
:103270006D697373656400676F6F6F6161616C0086
:10328000000000000000000031323334350E000E23
:103290000004000E00150004000A0012000E000ECB
:1032A0000004000E00150004000A001100000000D8
:1032B000000000000000000000180018001F0005BA
:1032C000001F0005001F0005001F00050015000A73
:1032D0000015000A0000001F000A000400000000A2
:1032E000001B000A0000000E00110000000000009A
:0E32F000001800180004001A001B0005000062
:00000001FF
