:100000000C942A000C9482060C94B5060C94E80615
:100010000C943C000C943C000C943C000C943C0070
:100020000C943C000C943C000C943C000C943C0060
:100030000C943C000C943C000C943C000C943C0050
:100040000C943C000C943C000C943C000C943C0040
:100050000C943C0011241FBECFE5D8E0DEBFCDBF1D
:1000600010E0A0E6B0E001C01D92A836B107E1F7AC
:100070000E9437070C94BF070C940000DF93CF93C6
:1000800000D000D0CDB7DEB789836A838981282F5D
:1000900030E03C832B838B819C818C309105B1F0C7
:1000A0002B813C812D30310534F48B819C8185304E
:1000B0009105D9F01EC02B813C812132310559F0C8
:1000C0008B819C818832910559F013C0E9E3F0E0FF
:1000D0008A8181830EC0E6E3F0E08A81818309C0D2
:1000E000E3E3F0E08A81818304C0E0E3F0E08A8109
:1000F00081830F900F900F900F90CF91DF91089513
:10010000DF93CF9300D000D0CDB7DEB789836A8369
:100110008981282F30E03C832B838B819C818C301C
:100120009105B1F02B813C812D30310534F48B8168
:100130009C8185309105D9F01EC02B813C812132F4
:10014000310559F08B819C818832910559F013C09B
:10015000E9E3F0E08A8182830EC0E6E3F0E08A8181
:10016000828309C0E3E3F0E08A81828304C0E0E394
:10017000F0E08A8182830F900F900F900F90CF91C3
:10018000DF910895DF93CF9300D000D0CDB7DEB7D5
:100190008A8319828A81282F30E03C832B838B81CC
:1001A0009C818C309105B1F02B813C812D30310543
:1001B00034F48B819C8185309105D9F01EC02B8150
:1001C0003C812132310559F08B819C818832910527
:1001D00059F013C0E9E3F0E0808189830EC0E6E3C3
:1001E000F0E08081898309C0E3E3F0E080818983C6
:1001F00004C0E0E3F0E08081898389810F900F9053
:100200000F900F90CF91DF910895DF93CF93CDB7EB
:10021000DEB729970FB6F894DEBF0FBECDBF898336
:100220006A834B838A81883008F0CCC18B818A3500
:1002300009F079C08981282F30E03987288788859F
:1002400099858C309105B9F0288539852D30310597
:100250003CF4888599858530910509F44EC0B2C17A
:100260002885398521323105E1F0888599858832E4
:10027000910569F1A7C1A9E3B0E0E9E3F0E081816C
:10028000482F8A81282F30E081E090E0022E02C0C2
:10029000880F991F0A94E2F7842B11968C9311977B
:1002A00091C1A6E3B0E0E6E3F0E08181482F8A81C6
:1002B000282F30E081E090E0022E02C0880F991FC5
:1002C0000A94E2F7842B11968C9311977BC1A3E3D8
:1002D000B0E0E3E3F0E08181482F8A81282F30E00D
:1002E00081E090E0022E02C0880F991F0A94E2F785
:1002F000842B11968C93119765C1A0E3B0E0E0E3E5
:10030000F0E08181482F8A81282F30E081E090E061
:10031000022E02C0880F991F0A94E2F7842B1196CF
:100320008C9311974FC18B81843609F07EC08981EF
:10033000282F30E03F832E838E819F818C30910562
:1003400009F445C02E813F812D3031053CF48E816A
:100350009F818530910509F451C034C12E813F81C0
:100360002132310531F08E819F8188329105C1F0B3
:1003700029C1A6E3B0E0E6E3F0E08181482F8A815D
:10038000282F30E081E090E0022E02C0880F991FF4
:100390000A94E2F78095842311968C93119712C1E9
:1003A000A3E3B0E0E3E3F0E08181482F8A81282FC6
:1003B00030E081E090E0022E02C0880F991F0A947D
:1003C000E2F78095842311968C931197FBC0A9E3E3
:1003D000B0E0E9E3F0E08181482F8A81282F30E006
:1003E00081E090E0022E02C0880F991F0A94E2F784
:1003F0008095842311968C931197E4C0A0E3B0E01C
:10040000E0E3F0E08181482F8A81282F30E081E00D
:1004100090E0022E02C0880F991F0A94E2F780959F
:10042000842311968C931197CDC08B81883C09F061
:10043000C9C08981282F30E03D832C838C819D8128
:100440008C30910509F46BC02C813D812D30310534
:100450003CF48C819D818530910509F48AC0B2C03D
:100460002C813D812132310531F08C819D81883292
:10047000910559F1A7C0A6E3B0E0E6E3F0E0818181
:10048000482F8A81282F30E081E090E002C0880F59
:10049000991F2A95E2F78095842311968C93A9E3FE
:1004A000B0E0E9E3F0E08281482F8A81282F30E034
:1004B00081E090E0022E02C0880F991F0A94E2F7B3
:1004C000842B12968C9312977DC0A3E3B0E0E3E3F4
:1004D000F0E08181482F8A81282F30E081E090E090
:1004E00002C0880F991F2A95E2F780958423119600
:1004F0008C93A6E3B0E0E6E3F0E08281482F8A81A6
:10050000282F30E081E090E0022E02C0880F991F72
:100510000A94E2F7842B12968C93129753C0A9E3A6
:10052000B0E0E9E3F0E08181482F8A81282F30E0B4
:1005300081E090E002C0880F991F2A95E2F780952C
:10054000842311968C93A3E3B0E0E3E3F0E082818F
:10055000482F8A81282F30E081E090E0022E02C0EF
:10056000880F991F0A94E2F7842B12968C931297A6
:1005700029C0A0E3B0E0E0E3F0E08181482F8A8168
:10058000282F30E081E090E002C0880F991F2A9563
:10059000E2F78095842311968C93A0E3B0E0E0E32A
:1005A000F0E08281482F8A81282F30E081E090E0BE
:1005B000022E02C0880F991F0A94E2F7842B12962C
:1005C0008C93129729960FB6F894DEBF0FBECDBF5D
:1005D000CF91DF910895DF93CF93CDB7DEB7299701
:1005E0000FB6F894DEBF0FBECDBF89836A834B83FD
:1005F0008A81883008F07CC18B81813009F079C014
:100600008981282F30E039872887888599858C3023
:100610009105B9F0288539852D3031053CF4888560
:1006200099858530910509F44EC062C128853985C8
:1006300021323105E1F0888599858832910569F18B
:1006400057C1A9E3B0E0E9E3F0E08281482F8A8155
:10065000282F30E081E090E0022E02C0880F991F21
:100660000A94E2F7842B12968C93129741C1A6E369
:10067000B0E0E6E3F0E08281482F8A81282F30E065
:1006800081E090E0022E02C0880F991F0A94E2F7E1
:10069000842B12968C9312972BC1A3E3B0E0E3E373
:1006A000F0E08281482F8A81282F30E081E090E0BD
:1006B000022E02C0880F991F0A94E2F7842B12962B
:1006C0008C93129715C1A0E3B0E0E0E3F0E08281E3
:1006D000482F8A81282F30E081E090E0022E02C06E
:1006E000880F991F0A94E2F7842B12968C93129725
:1006F000FFC08B81882309F07EC08981282F30E0DC
:100700003F832E838E819F818C30910509F445C0F3
:100710002E813F812D3031053CF48E819F818530C3
:10072000910509F451C0E4C02E813F812132310589
:1007300031F08E819F8188329105C1F0D9C0A6E346
:10074000B0E0E6E3F0E08281482F8A81282F30E094
:1007500081E090E0022E02C0880F991F0A94E2F710
:100760008095842312968C931297C2C0A3E3B0E0C5
:10077000E3E3F0E08281482F8A81282F30E081E096
:1007800090E0022E02C0880F991F0A94E2F780952C
:10079000842312968C931297ABC0A9E3B0E0E9E3EF
:1007A000F0E08281482F8A81282F30E081E090E0BC
:1007B000022E02C0880F991F0A94E2F780958423C5
:1007C00012968C93129794C0A0E3B0E0E0E3F0E0BF
:1007D0008281482F8A81282F30E081E090E0022E2C
:1007E00002C0880F991F0A94E2F78095842312961D
:1007F0008C9312977DC08B81823009F079C08981FA
:10080000282F30E03D832C838C819D818C30910595
:1008100009F443C02C813D812D3031053CF48C819D
:100820009D818530910509F44EC062C02C813D81C7
:100830002132310531F08C819D8188329105B9F0EA
:1008400057C0A6E3B0E0E6E3F0E08281482F8A815A
:10085000282F30E081E090E0022E02C0880F991F1F
:100860000A94E2F7842712968C93129741C0A3E36F
:10087000B0E0E3E3F0E08281482F8A81282F30E066
:1008800081E090E0022E02C0880F991F0A94E2F7DF
:10089000842712968C9312972BC0A9E3B0E0E9E36A
:1008A000F0E08281482F8A81282F30E081E090E0BB
:1008B000022E02C0880F991F0A94E2F7842712962D
:1008C0008C93129715C0A0E3B0E0E0E3F0E08281E2
:1008D000482F8A81282F30E081E090E0022E02C06C
:1008E000880F991F0A94E2F7842712968C93129727
:1008F00029960FB6F894DEBF0FBECDBFCF91DF9122
:100900000895DF93CF9300D000D00F92CDB7DEB71C
:100910008A836B838B81883008F068C08A81282F96
:1009200030E03D832C834C815D814C305105B9F022
:100930008C819D818D3091053CF42C813D81253049
:10094000310509F442C052C04C815D8141325105EC
:10095000C1F08C819D818832910529F147C0E9E37E
:10096000F0E08081282F30E08B81882F90E0A90172
:1009700002C0559547958A95E2F7CA01817089832F
:1009800035C0E6E3F0E08081282F30E08B81882FAE
:1009900090E0A90102C0559547958A95E2F7CA01F2
:1009A0008170898323C0E3E3F0E08081282F30E069
:1009B0008B81882F90E0A90102C0559547958A95B3
:1009C000E2F7CA018170898311C0E0E3F0E0808121
:1009D000282F30E08B81882F90E0A90102C0559527
:1009E00047958A95E2F7CA018170898389810F90C2
:1009F0000F900F900F900F90CF91DF910895DF939C
:100A0000CF93CDB7DEB72A970FB6F894DEBF0FBEEF
:100A1000CDBF89836A838981282F30E03A8729876F
:100A200089859A858630910569F029853A85273030
:100A3000310509F462C089859A858530910509F4EC
:100A4000B7C0D5C08A81282F30E038872F838F81A7
:100A500098858130910521F12F813885223031052B
:100A60002CF48F819885009761F0C1C02F81388563
:100A70002230310521F18F8198858330910571F104
:100A8000B6C0A5E5B0E0E5E5F0E080818D7F8C9310
:100A9000A5E5B0E0E5E5F0E080818E7F8C93A7C00E
:100AA000A5E5B0E0E5E5F0E080818D7F8C93A5E5DC
:100AB000B0E0E5E5F0E0808181608C9398C0A5E529
:100AC000B0E0E5E5F0E0808182608C93A5E5B0E0E0
:100AD000E5E5F0E0808181608C9389C0A5E5B0E018
:100AE000E5E5F0E0808182608C93A5E5B0E0E5E586
:100AF000F0E080818E7F8C937AC08A81282F30E04D
:100B00003E832D838D819E818130910521F12D8140
:100B10003E81223031052CF48D819E81009761F059
:100B200066C02D813E812230310521F18D819E816B
:100B30008330910571F15BC0A5E5B0E0E5E5F0E03B
:100B40008081877F8C93A5E5B0E0E5E5F0E08081CA
:100B50008B7F8C934CC0A5E5B0E0E5E5F0E08081AB
:100B6000877F8C93A5E5B0E0E5E5F0E080818460C7
:100B70008C933DC0A5E5B0E0E5E5F0E080818860BC
:100B80008C93A5E5B0E0E5E5F0E0808184608C938E
:100B90002EC0A5E5B0E0E5E5F0E0808188608C93AB
:100BA000A5E5B0E0E5E5F0E080818B7F8C931FC088
:100BB0008A81282F30E03C832B838B819C8182307B
:100BC000910531F02B813C812330310549F00FC074
:100BD000A5E5B0E0E5E5F0E0808180648C9307C096
:100BE000A5E5B0E0E5E5F0E080818F7B8C932A9667
:100BF0000FB6F894DEBF0FBECDBFCF91DF91089541
:100C0000DF93CF930F92CDB7DEB78983898185308B
:100C1000B0F08981883098F4ABE5B0E0EBE5F0E026
:100C20008081482F8981282F30E081E090E0022EDA
:100C300002C0880F991F0A94E2F7842B8C930F90BF
:100C4000CF91DF910895DF93CF930F92CDB7DEB7A9
:100C5000898389818530B8F089818830A0F4ABE53B
:100C6000B0E0EBE5F0E08081482F8981282F30E06B
:100C700081E090E0022E02C0880F991F0A94E2F7EB
:100C8000809584238C930F90CF91DF910895DF930B
:100C9000CF9300D000D00F92CDB7DEB79A8389836F
:100CA0006B838B81282F30E03D832C838C819D8149
:100CB0008630910559F02C813D812730310569F04E
:100CC0008C819D818530910579F014C089819A814C
:100CD00090936100809360000DC089819A81909308
:100CE00063008093620006C089819A8190936500B9
:100CF000809364000F900F900F900F900F90CF9102
:100D0000DF9108951F920F920FB60F9211242F9327
:100D10003F934F935F936F937F938F939F93AF9383
:100D2000BF93EF93FF93DF93CF93CDB7DEB780915F
:100D3000600090916100009729F0E0916000F091CF
:100D400061000995CF91DF91FF91EF91BF91AF9134
:100D50009F918F917F916F915F914F913F912F91D3
:100D60000F900FBE0F901F9018951F920F920FB605
:100D70000F9211242F933F934F935F936F937F9321
:100D80008F939F93AF93BF93EF93FF93DF93CF9393
:100D9000CDB7DEB78091620090916300009729F093
:100DA000E0916200F09163000995CF91DF91FF918E
:100DB000EF91BF91AF919F918F917F916F915F91D3
:100DC0004F913F912F910F900FBE0F901F9018954C
:100DD0001F920F920FB60F9211242F933F934F93B0
:100DE0005F936F937F938F939F93AF93BF93EF9393
:100DF000FF93DF93CF93CDB7DEB7809164009091DE
:100E00006500009729F0E0916400F0916500099574
:100E1000CF91DF91FF91EF91BF91AF919F918F9112
:100E20007F916F915F914F913F912F910F900FBEE6
:100E30000F901F901895DF93CF93CDB7DEB7AFE536
:100E4000B0E0EFE5F0E0808180688C93CF91DF9196
:100E50000895DF93CF93CDB7DEB7AFE5B0E0EFE510
:100E6000F0E080818F778C93CF91DF910895DF93AD
:100E7000CF93CDB7DEB785E062E048EC0E94050174
:100E800081E260E04AE50E94050181E261E04AE515
:100E90000E94050181E262E04AE50E94050181E2CB
:100EA00063E04AE50E94050186E061E00E94FF04DC
:100EB00083E697E066E00E94470686E00E9400060F
:100EC0000E941B07FFCFDF93CF9300D0CDB7DEB7D3
:100ED00080916600909167009A83898389819A81C5
:100EE00082309105E1F089819A818330910534F453
:100EF00089819A818130910561F022C089819A812E
:100F00008330910591F089819A818430910599F01F
:100F100017C081E260E042E00E94EB0211C081E272
:100F200061E042E00E94EB020BC081E262E042E03D
:100F30000E94EB0205C081E263E042E00E94EB0206
:100F400085E062E00E948104882349F48091660074
:100F5000909167000196909367008093660080915E
:100F60006600909167008530910524F0109267002B
:100F7000109266000F900F90CF91DF910895F89432
:020F8000FFCFA1
:00000001FF
